:020000040800F2
:100000000004002091010008710F0008930100080E
:100010009301000893010008930100089301000870
:100020009301000893010008930100089301000860
:1000300093010008930100089301000801050008DE
:100040009301000893010008930100089301000840
:100050009301000893010008930100089301000830
:100060009301000893010008930100089301000820
:10007000410800089301000893010008930100085B
:100080009301000893010008930100089301000800
:1000900093010008930100089301000893010008F0
:1000A00093010008930100089301000893010008E0
:1000B00093010008930100089301000893010008D0
:1000C00072B6244880F30888234880F30988022008
:1000D00080F31488BFF36F8F00F0DAF800F0D0FBE4
:1000E0001E481F491B4A914202DA08600431FAE7B0
:1000F0001C49194A914202DA08600431FAE71A49A8
:100100001A4A1B4B9A4204DA086810600431043220
:10011000F8E700201749184A914202DA08600431D2
:10012000FAE700F0CDF800F0BBF8144C144DAC42E7
:1001300003DA216888470434F9E700F051FF114CD5
:10014000114DAC4203DA216888470434F9E70F49BE
:1001500008470000000400200008002055555555B0
:1001600000000020000400204812000800080020C1
:100170000408002008080020240A0020C00000080D
:10018000C0000008C0000008C0000008B10200085C
:1001900096E700F000F8FEE7F0B544464D465646B7
:1001A0005F46F0B46B46CB60C3689D46F0BCA0468A
:1001B000A946B246BB46F0BD62B6281CA047002047
:1001C00000F0EEFDFEE700F01BFD024A024B13605B
:1001D000FEE7C04604ED00E000000080F0B5050039
:1001E000830749D0541E002A45D003000326CAB213
:1001F00002E00135013C3ED301332A703342F8D18D
:10020000032C30D9FF220A401502AD182A04AD187C
:100210000F2C34D92700103F3F093E01B4461E0081
:100220001A0010366644156055609560D56010322E
:100230009642F8D101373F01DB190F270C222740E6
:1002400022403C00002A0ED03E1FB608B400A4464F
:100250001A001C1D644420C2A242FCD103240136B2
:10026000B6009B193C40002C05D0C9B21C1919706E
:1002700001339C42FBD1F0BD03001400C0E727000E
:10028000E2E7C0460000000000000000000000009F
:100290007047C046000000000000000000000000A1
:1002A0007047C04600000000000000000000000091
:1002B000FEE7C04600000000000000000000000053
:1002C00070B5114C250080356068A26821689042A5
:1002D0000AD2030040C940C39342FBD3013A131A28
:1002E0009B0801339B00C018E368834207D9013B98
:1002F0001A1A9208013200219200FFF76FFF1034A2
:10030000AC42E1D170BDC0460411000800000000FD
:1003100010B500F095F800F01BF900F011F800F0AE
:1003200017FB00F005F810BD000000000000000001
:1003300010B500F0F5F810BD00000000000000004E
:1003400010B500F0ADF910BD000000000000000085
:10035000012310B50370002343608360C360036111
:100360004361183000F06CFD10BDC0460000000075
:1003700010B5040072B6416000F0AAF902232370A0
:1003800062B6002010BDC046000000000000000062
:1003900010B5040072B6C36003238260037001616C
:1003A00000F0B6F9200001211430494200F028FD88
:1003B00062B610BD00000000000000000000000058
:1003C0000F4A70B594460322FF25C0260240D20092
:1003D00095408901914083089B006344B6009C5975
:1003E0001F22AC430C439C51012302409340C02286
:1003F00040098000604452008350036070BDC046D5
:1004000000E100E00000000000000000000000002B
:100410000F2310B50340040003202040FF24074AA7
:10042000C0009446844089018140083B9B089B00A2
:100430006344DA69A2430A43DA6110BD00ED00E0CB
:10044000064B074A02219A62002249429A62D96009
:100450000131DA6019611A617047C046001002402C
:10046000FFFF81FF0000000000000000000000000E
:1004700001211D4A13680B431360013113681942AF
:10048000FCD0032153688B435360174A093108009D
:10049000536818401942FAD1FD2311680B401360CC
:1004A000E4235B035060D06210635063D0625360FA
:1004B000802311685B040B43802113600A4A89047E
:1004C00013680B42FCD01221084B19605368103995
:1004D0000B4353600C2204494B681340082BFBD19B
:1004E000034B044A1A60704700100240002002408B
:1004F0000008002000A24A040000000000000000E4
:1005000010B5744672B600F05BFA62B6200000F0D7
:1005100047FD10BD000000000000000000000000CA
:10052000064B074A10B55A6000229A600732022132
:100530000B201A60FFF76CFF10BDC04610E000E012
:100540001F1C000000000000000000000000000070
:100550007047C046000000000000000000000000DE
:10056000F0B54E46032457464546DE46E0B5270023
:10057000530917405607D508520525401C40130F54
:10058000012285B0039391460023A4460297F60FFB
:10059000009717E05C4607682740009C27430760E8
:1005A000072B52D85446076A3A4022430262490850
:1005B00044D0624692009446009A76009200AD00C4
:1005C000009201334A460A42F1D007274C46039A6B
:1005D0001F40BF00BA409C4092468288A2433243EB
:1005E00092B28280846801945C00A0460324424653
:1005F0009440E24393462200A046019C944322008B
:1006000044462A438260C268A24364462243C260D1
:100610000F22BA40029CD243022CBBD1072B1AD81E
:10062000076A17405246174307625C46026849084A
:100630002240009C224302600029BAD105B0F0BCE0
:10064000BB46B246A946A046F0BD5446476A3A406A
:1006500022434262ABE7476A17405246174347625C
:10066000E3E7C046000000000000000000000000BA
:100670000023436083685B0706D510228368134319
:10068000836083681A42FCD102228368134383602B
:10069000013A83681A42FCD1036803607047C04680
:1006A00010B5074C2000FFF753FE064B0321A36251
:1006B00000230C20E3622363FFF782FE10BDC046D7
:1006C0000808002000240140000000000000000095
:1006D000037810B5012B12D18022094B9200D96802
:1006E000084C1143D960D9682140D960D96899690B
:1006F0000A439A6180229B69836A12061A6110BDBF
:1007000000100240FFFDFFFF00000000000000009D
:10071000836A026919681960D168D9609169996220
:10072000516959619168002915D0116919629421A4
:1007300059600021C1625188C2684A4301210263A5
:100740009A680A439A601A681142FCD004219A6898
:100750000A439A6070470421EAE7C046000000009F
:10076000F8B50400806A2569036802680260002DFC
:100770000DD090221A420BD15B0708D5E36A226B99
:10078000934222D30133016C9A4225D9E362F8BD2A
:10079000DE06F60F76001B0601D504231E43FFF785
:1007A00067FFAB68002B29D00522310020002270A2
:1007B00098472378052B21D072B6012120004942A9
:1007C000143000F02DFB62B6E1E7076CA1685E0013
:1007D000013377529A42D9D800232E78E362002E53
:1007E00011D06B68002BD2D00422200022709847D1
:1007F0002378042BCBD1013B2370C8E7022323705D
:1008000000232361D8E7FFF733FF02226B682270D1
:10081000002B0CD0200098472378022B09D072B609
:1008200020000021143000F0FBFA62B6AFE723612C
:10083000F5E723699D42F2D12661F0E70000000050
:1008400010B574460348FFF78BFF200000F0A8FBAB
:1008500010BDC04608080020000000000000000095
:100860008023034ADB0311680B4313607047C046C3
:100870000827014000000000000000000000000008
:10088000FC22244BD203996A10B511439962996AEC
:100890002148802401409962996A59691F480A4396
:1008A0005A6190225B6900231D49D20593809160B3
:1008B0001C49D1602121494291828821490111625C
:1008C0001949536211600122184952428B808A6093
:1008D000C8608A820B624B620C601549154C8B8094
:1008E0008A60CC608A820B624B620B6012498B80FB
:1008F0008A60C8608A8211480B624B620B601049A3
:100900008B808A60C8608A820B624B620B60FFF743
:10091000AFFD10BD00100240FFFF81FF555555553A
:100920005FF7FFFF05515565A0040028000400484B
:100930000008004855555501000C004850555555C4
:10094000001400480000000000000000000000004B
:100950007047C046000000000000000000000000DA
:10096000012310B5084C23700023636000F070FA77
:1009700000F0AEFA00F0CCFA0449054800F068F93E
:100980000223237062B610BDB0090020B811000820
:10099000200900200000000000000000000000000E
:1009A00072B68822024B9850024B853A1A70FEE7C5
:1009B00020090020B0090020000000000000000015
:1009C00010B500F03DF810BD000000000000000070
:1009D00010B5036100230C4C43612369C2609A681F
:1009E000914204D91B68891A9A688A42FAD35A68D4
:1009F00081600360426010609A685860521A9A6081
:100A000001235B42A36110BD20090020000000000B
:100A1000036881689A6852189A60426813605A6045
:100A2000002301220360024B52429A617047C04684
:100A3000200900200000000000000000000000006D
:100A400070B51B4DEB692C690133EB612B00103342
:100A50009C4215D0A368013BA3600FE02268616847
:100A60000A605160236062B620002169E3689847FC
:100A700072B66369002B04D12C69A368002BEDD0FA
:100A800070BD2A6991688B4204D912685B1A91681B
:100A90009942FAD35168A360616022600C6091684A
:100AA0005460CB1A936001235B42AB61E4E7C0461C
:100AB00020090020000000000000000000000000ED
:100AC00072B62423CB5C0C2B0BD8114A9B00D35855
:100AD0009F468A6A9368013393604A680B68136083
:100AE0005A60012300225B428B622533CA548B6912
:100AF00088681B689A688242FBD25A680B604A6019
:100B00001160596062B6704700228B6A1A60E8E78C
:100B1000CC110008000000000000000000000000F0
:100B200024230022C254836981681B689A688A4220
:100B3000FBD25A6803604260106058607047C0463C
:100B40002422074B10B5D96888541868046863607C
:100B50001C6001248454D860FFF71EFB10BDC04602
:100B6000200900200000000000000000000000003C
:100B700070B5164C0500E66886B04B1C19D03300E2
:100B80006846134AFFF724FF2423E1682068CD5408
:100B90000268546022600122C254E060FFF7FCFA50
:100BA000009B002B02D06846FFF732FFB06A06B008
:100BB00070BD2423F0542068310002685460226024
:100BC0000122C254E060FFF7E7FAEFE720090020B6
:100BD000C10A000800000000000000000000000042
:100BE000044BDA68196890688B68984280414042EB
:100BF0007047C046200900200000000000000000EF
:100C00000D4B10B51868D9680268012453601A604A
:100C1000D8602422002384548B548B698C681B6811
:100C20009A68A242FBD85A680B604A60116059600A
:100C3000FFF7B2FA10BDC0462009002000000000F6
:100C4000FEE7C046000000000000000000000000B9
:100C5000F0B5002604001D4B87B0066381630D00CC
:100C6000586000F08DF923002833A362E362183B3B
:100C70002361636101235B42A361154BE661DB697C
:100C80000027A660666321001E0088232662676233
:100C9000246064603C31E75020000E4A083B00F0BD
:100CA0001FF86B68E06024220362012383540A4A20
:100CB00003930092EA68094B01922A6968460292FE
:100CC0000493059700F064F807B0F0BDB009002068
:100CD000200900200012000888110008410C0008BB
:100CE00010B5040008008B60436402210023818456
:100CF0000364C363013926338461C154C261220095
:100D0000030028320261E26A103342611360E36239
:100D10001C33C36204330363436310BD000000004F
:100D20008368020018005168503830B5016219001C
:100D300014697439C1600C61546902254C61114C0D
:100D40000C621468D1681A002C3A816015804164E5
:100D500000210D4A0164C163013D26318261455481
:100D6000C46119001400403928340C60D46A4C6006
:100D70002160D1621A00203B243A12601B605B6044
:100D800030BDC046B9010008200900200000000065
:100D900010B5FFF7C5FFFFF7C3FE10BD0000000050
:100DA00070B572B6114BDC682500A062E06A2C3584
:100DB000854207D12623E35C002B0ED00F20FFF7DE
:100DC000BFFE70BD0368E362FFF7AAFEE06AA842B7
:100DD000F8D12623E35C002BF0D12533E35C9B079D
:100DE000ECD16269236913605A60E7E720090020AB
:100DF00010B5010072B60820FFF7BAFE62B610BD4A
:100E0000064B10B5DB68002905D00360986203200B
:100E1000FFF7AEFE10BD01204042FBE72009002095
:100E20000300006810B5002804D000221A60816217
:100E3000FFF776FE10BDC046000000000000000075
:100E400000230060406083607047C04600000000DF
:100E5000024B034A1A60034A5A607047B8090020DF
:100E6000280A0020002000200000000000000000F0
:100E700070B5094C26686568AB1B984209D82B1AD7
:100E800048421840821A964203D8954201D36260C4
:100E900070BD0020FCE7C046B8090020000000003B
:100EA00070B572B6094C26686568AB1B98420AD8C3
:100EB0002B1A48421840821A964204D8954202D30F
:100EC000626062B670BD0020FBE7C046B809002032
:100ED0000548064B10B503600023436083600C3067
:100EE000FFF7AEFF10BDC046C0090020A10E0008EC
:100EF00010B50024046041608260C36010BDC0462C
:100F000010B50022FFF7B4FF10BDC046000000007E
:100F100070B5134C2000FFF793FF23002000114D04
:100F20001033236104222B0014211430FFF7E0FF5B
:100F3000230024336362230020002833A3620422A9
:100F40002B001C212C30FFF7D3FF23003C33E3633D
:100F500023004033236423004433636470BDC046E0
:100F6000DC090020010F0008000000000000000064
:100F7000EFF30983203383F3098862B67047C046D4
:100F8000024A0349136A0B401362704700ED00E008
:100F9000FFFF00FF00000000000000000000000054
:100FA00010B50F3000D110BD72B6EFF30984203CAC
:100FB00084F3098880235B04E361FFF711FE0028B6
:100FC00002D0034BA361EEE7024BA361EBE7C046FF
:100FD000C7010008CA01000800000000000000006E
:100FE000F0B5DE46454657464E46E0B587B0FFF7BA
:100FF0008FF9FFF7B5FC80213A4D01222800C90185
:10100000FFF7AEFA8021012228000902FFF7A8FAB3
:101010008023DB05AB618023334F1B06AB610021CE
:101020003800FFF7A5F93800FFF71AFC6420FFF736
:10103000DFFE2E4B98462E4B9B462E4B0193802372
:10104000DB059A46802302AA1B021400994606AECD
:10105000009202E00234B44211D001232200414642
:101060003800FFF795F90028F4D05346AB614B46A2
:101070005846AB610234FFF793FCB442EDD102ABAA
:1010800019880E269C460800009A664453881C1C4A
:101090008B4200D90C1CA1B21C1C834200D2041C40
:1010A0000232A0B2B242F1D1134B994205D9134B8F
:1010B000984202D8401A642808D98023DB05AB6126
:1010C00080231B020198AB61FFF76AFC802380221A
:1010D000DB01AB61AB8A120253400948AB82FFF7D8
:1010E00087FEACE700040048080800202C12000826
:1010F00090110008A41100084B040000540B0000DC
:041100008813000050
:101104004C120008240A0020240A0020240A00208B
:101114004C12000800000000000000000000000065
:101124004C12000800000000000000000000000055
:101134004C12000800000000000000000000000045
:101144004C12000800000000000000000000000035
:101154004C12000800000000000000000000000025
:101164004C12000800000000000000000000000015
:101174004C12000800000000000000000000000005
:101184006330000069646C65000000004144432042
:10119400636F6E76657273696F6E204641494C00C9
:1011A4004144432056524546494E54204641494CF9
:1011B400000000008411000800000000000000008E
:1011C4004008002020090020040B0008E20A00085F
:1011D400E20A0008080B0008DA0A0008D20A00082C
:1011E400E20A0008DA0A0008E20A0008E20A000833
:1011F400E20A0008E20A0008DA0A00086D61696E72
:10120400002C063804044C080C10141C2024252639
:10121400000000000000240401000400000000009D
:10122400000C001028303400000001000000000011
:1012340000000000000000000000000007000000A3
:0412440000000200A4
:0412480000A24A04B2
:04000005080001915D
:00000001FF
