:020000040800F2
:10000000000400209101000811120008930100086B
:100010009301000893010008930100089301000870
:100020009301000893010008930100089301000860
:10003000930100089301000893010008A10500083E
:100040009301000893010008930100089301000840
:100050009301000893010008930100089301000830
:100060009301000893010008930100089301000820
:100070009301000893010008930100089301000810
:100080009301000893010008930100089301000800
:10009000930100089301000893010008110700086C
:1000A00093010008930100089301000893010008E0
:1000B00093010008930100089301000893010008D0
:1000C00072B6244880F30888234880F30988022008
:1000D00080F31488BFF36F8F00F022F900F0B8FCB2
:1000E0001E481F491B4A914202DA08600431FAE7B0
:1000F0001C49194A914202DA08600431FAE71A49A8
:100100001A4A1B4B9A4204DA086810600431043220
:10011000F8E700201749184A914202DA08600431D2
:10012000FAE700F015F900F003F9144C144DAC4255
:1001300003DA216888470434F9E701F0C1F8114C6B
:10014000114DAC4203DA216888470434F9E70F49BE
:1001500008470000000400200008002055555555B0
:10016000000000200004002098150008000800206E
:100170000408002008080020880B0020C0000008A8
:10018000C0000008C0000008C000000841030008CB
:1001900096E700F000F8FEE7F0B544464D465646B7
:1001A0005F46F0B46B46CB60C3689D46F0BCA0468A
:1001B000A946B246BB46F0BD62B6281CA047002047
:1001C00000F03EFFFEE700F033FE024A024B1360F0
:1001D000FEE7C04604ED00E000000080002934D0B6
:1001E0000123002210B488422CD301242407A14209
:1001F00004D2814202D209011B01F8E7E400A142C6
:1002000004D2814202D249005B00F8E7884201D360
:10021000401A1A434C08A04202D3001B5C08224338
:100220008C08A04202D3001B9C082243CC08A042A9
:1002300002D3001BDC082243002803D01B0901D095
:100240000909E3E7100010BC704701B5002000F079
:100250000BF802BD0029F8D003B5FFF7C1FF0EBCB3
:100260004243891A1847C0467047C046F0B505009A
:10027000830749D0541E002A45D003000326CAB282
:1002800002E00135013C3ED301332A703342F8D1FC
:10029000032C30D9FF220A401502AD182A04AD18EC
:1002A0000F2C34D92700103F3F093E01B4461E00F1
:1002B0001A0010366644156055609560D56010329E
:1002C0009642F8D101373F01DB190F270C22274056
:1002D00022403C00002A0ED03E1FB608B400A446BF
:1002E0001A001C1D644420C2A242FCD10324013622
:1002F000B6009B193C40002C05D0C9B21C191970DE
:1003000001339C42FBD1F0BD03001400C0E727007D
:10031000E2E7C0460000000000000000000000000E
:100320007047C04600000000000000000000000010
:100330007047C04600000000000000000000000000
:10034000FEE7C046000000000000000000000000C2
:1003500070B5114C250080356068A2682168904214
:100360000AD2030040C940C39342FBD3013A131A97
:100370009B0801339B00C018E368834207D9013B07
:100380001A1A9208013200219200FFF76FFF103411
:10039000AC42E1D170BDC04620140008000000004E
:1003A00010B500F09DF800F023F900F011F800F00E
:1003B000B7FB00F005F810BD0000000000000000D1
:1003C00010B500F0FDF810BD0000000000000000B6
:1003D00010B500F065FA10BD00000000000000003C
:1003E000012310B50370002343600C3000F078FE49
:1003F00010BDC0460000000000000000000000002A
:1004000010B5040072B6416000F05AFA022323705E
:1004100062B6002010BDC0460000000000000000D1
:1004200010B5040084B072B60020A06003302070C4
:10043000089802900798019006980090200000F01C
:10044000BFFA431C5A1E934102225B429343053379
:10045000237062B604B010BD000000000000000070
:100460000F4A70B594460322FF25C0260240D200F1
:1004700095408901914083089B006344B6009C59D4
:100480001F22AC430C439C51012302409340C022E5
:1004900040098000604452008350036070BDC04634
:1004A00000E100E00000000000000000000000008B
:1004B0000F2310B50340040003202040FF24074A07
:1004C000C0009446844089018140083B9B089B0002
:1004D0006344DA69A2430A43DA6110BD00ED00E02B
:1004E000064B074A02219A62002249429A62D96069
:1004F0000131DA6019611A617047C046001002408C
:10050000FFFF81FF0000000000000000000000006D
:1005100001211D4A13680B4313600131136819420E
:10052000FCD0032153688B435360174A09310800FC
:10053000536818401942FAD1FD2311680B4013602B
:10054000E4235B035060D06210635063D062536059
:10055000802311685B040B43802113600A4A8904DD
:1005600013680B42FCD01221084B196053681039F4
:100570000B4353600C2204494B681340082BFBD1FA
:10058000034B044A1A6070470010024000200240EA
:100590000008002000A24A04000000000000000043
:1005A00010B5744672B600F0F3FA62B6200000F09F
:1005B00047FE10BD00000000000000000000000029
:1005C000064B074A10B55A6000229A600732022192
:1005D0000B201A60FFF76CFF10BDC04610E000E072
:1005E0001F1C0000000000000000000000000000D0
:1005F0007047C0460000000000000000000000003E
:10060000F0B54E46032457464546DE46E0B5270082
:10061000530917405607D508520525401C40130FB3
:10062000012285B0039391460023A4460297F60F5A
:10063000009717E05C4607682740009C2743076047
:10064000072B52D85446076A3A40224302624908AF
:1006500044D0624692009446009A76009200AD0023
:10066000009201334A460A42F1D007274C46039ACA
:100670001F40BF00BA409C4092468288A24332434A
:1006800092B28280846801945C00A04603244246B2
:100690009440E24393462200A046019C94432200EA
:1006A00044462A438260C268A24364462243C26031
:1006B0000F22BA40029CD243022CBBD1072B1AD87E
:1006C000076A17405246174307625C4602684908AA
:1006D0002240009C224302600029BAD105B0F0BC40
:1006E000BB46B246A946A046F0BD5446476A3A40CA
:1006F00022434262ABE7476A1740524617434762BC
:10070000E3E7C04600000000000000000000000019
:1007100070B5F0255B482D01026A7446918A8BB250
:10072000294229D1D90721D4990752D4402119420D
:100730005ED0415C002900D071E019065DD45B07F2
:1007400016D5036BC16A994200D984E0836B002BF4
:1007500000D186E001214023C154838C0B43838464
:10076000A0231188DB000B43138001E0838C1382EC
:10077000200000F065FD70BDD905C90F9D0501D5AC
:10078000022529438160590503D504258168294341
:100790008160190503D50825816829438160918806
:1007A000394801409180A021C9000B4204D0802328
:1007B00011889B000B43138000233448938200F080
:1007C000D7F972B602213248494200F079FC62B68C
:1007D000CEE7138B5B0717D5C36A002BC8D0016B1C
:1007E0008B42C5D9836A5B5C013113820163BFE729
:1007F0001D060DD5415C0029BAD1016BC56AA9421D
:10080000F0D35B07A2D4B3E7836B012BB0D118E020
:100810005B07ADD5435C002B00D192E7A8E7158AB2
:10082000C36B816BADB28B4203D2416BCD54C36BB2
:10083000816B0133C3638B4218D201398B4200D0E4
:1008400096E7138813490B401380802311889B007F
:100850000B4313808CE7816AC95C01331182036307
:1008600086E7802311889B000B43138093880649F9
:100870000B40938072B600211C3000F021FC62B660
:1008800076E7C04608080020FFF8FFFFA014000824
:1008900024080020FFFBFFFF000000000000000014
:1008A00010B5044C2000FFF79BFD034B236200238F
:1008B000E36110BD08080020005400400000000063
:1008C000F8B5066A037805003400012B3FD00023F9
:1008D0003F22324F6D6827802380A380A382A388A4
:1008E00069689343287AA380A388373A1343A38087
:1008F0002B4B994212D82B484900FFF76FFC80B26E
:10090000A08323882A789BB2022A18D0032A1BD1FD
:100910000A2213432380244B3380F8BD03282ED0B2
:100920004B0059181F48FFF759FC0005000D0743FD
:10093000BFB2A78323882A789BB2022AE6D1082275
:100940009343063A1343E5E70A229343E2E7174B42
:100950009842BCD18022164B920319691548114365
:1009600019611969014019611969D96917200A4388
:10097000DA610321DB69FFF773FD2C6AA7E78B00BF
:1009800059188B00C9180748FFF728FCC023000539
:10099000000D1B021843A083B3E7C0460080FFFF91
:1009A000A086010000127A0001040000080800205F
:1009B00000100240FFFFDFFF000000000000000009
:1009C000F8B5C362069B00254363079B4900836318
:1009D0004023046A8560818482620563C563C554CF
:1009E00062B68025FA26164A0221D769AD00760044
:1009F00000E062B672B6238B194202D123882B42E3
:100A000006D0D369DB1BB342F3D301204042F8BDCB
:100A1000E023A288DB001343A380A0232288DB000D
:100A20001343238008991C3000F03AFB431CEED19D
:100A3000A388044A1340A38023881D432580E6E74A
:100A400030090020FFF8FFFF000000000000000058
:100A5000FC22244BD203996A10B511439962996A1A
:100A60002148802401409962996A59691F480A43C4
:100A70005A6190225B6900231D49D20593809160E1
:100A80001C49D1602121494291828821490111628A
:100A90001949536211600122184952428B808A60C1
:100AA000C8608A820B624B620C601549154C8B80C2
:100AB0008A60CC608A820B624B620B6012498B8029
:100AC0008A60C8608A8211480B624B620B601049D1
:100AD0008B808A60C8608A820B624B620B60FFF772
:100AE00017FD10BD00100240FFFF81FF5555555501
:100AF0005FF7FFFF05515565A0040028000400487A
:100B00000008004855555501000C004850555555F2
:100B10000014004800000000000000000000000079
:100B20007047C04600000000000000000000000008
:100B3000012310B5084C23700023636000F0D8FA3D
:100B400000F016FB00F034FB0449054800F098F96A
:100B50000223237062B610BDC009002018150008DA
:100B6000300900200000000000000000000000002C
:100B700072B68822024B9850024B853A1A70FEE7F3
:100B800030090020C0090020000000000000000023
:100B900010B500F03DF810BD00000000000000009E
:100BA00010B5036100230C4C43612369C2609A684D
:100BB000914204D91B68891A9A688A42FAD35A6802
:100BC00081600360426010609A685860521A9A60AF
:100BD00001235B42A36110BD30090020000000002A
:100BE000036881689A6852189A60426813605A6074
:100BF000002301220360024B52429A617047C046B3
:100C0000300900200000000000000000000000008B
:100C100070B51B4DEB692C690133EB612B00103370
:100C20009C4215D0A368013BA3600FE02268616875
:100C30000A605160236062B620002169E36898472A
:100C400072B66369002B04D12C69A368002BEDD028
:100C500070BD2A6991688B4204D912685B1A916849
:100C60009942FAD35168A360616022600C60916878
:100C70005460CB1A936001235B42AB61E4E7C0464A
:100C8000300900200000000000000000000000000B
:100C900072B62423CB5C0C2B0BD8114A9B00D35883
:100CA0009F468A6A9368013393604A680B681360B1
:100CB0005A60012300225B428B622533CA548B6940
:100CC00088681B689A688242FBD25A680B604A6047
:100CD0001160596062B6704700228B6A1A60E8E7BB
:100CE0002C150008000000000000000000000000BB
:100CF00024230022C254836981681B689A688A424F
:100D0000FBD25A6803604260106058607047C0466A
:100D10002422074B10B5D9688854186804686360AA
:100D20001C6001248454D860FFF736FA10BDC04619
:100D3000300900200000000000000000000000005A
:100D400070B5164C0500E66886B04B1C19D0330010
:100D50006846134AFFF724FF2423E1682068CD5436
:100D60000268546022600122C254E060FFF714FA66
:100D7000009B002B02D06846FFF732FFB06A06B036
:100D800070BD2423F0542068310002685460226052
:100D90000122C254E060FFF7FFF9EFE730090020BD
:100DA000910C00080000000000000000000000009E
:100DB00070B5154C8162E368826899688A4214D9DB
:100DC000242200259D549A6912689568A942FBD394
:100DD00051681A6059600B605360012124228154CC
:100DE0001900E060FFF7D8F970BD24230021C15439
:100DF00083691B6899688A42FBD95A68036042601C
:100E000010605860F0E7C046300900200000000084
:100E1000044BDA68196890688B68984280414042B8
:100E20007047C046300900200000000000000000AC
:100E30000D4B10B51868D9680268012453601A6018
:100E4000D8602422002384548B548B698C681B68DF
:100E50009A68A242FBD85A680B604A6011605960D8
:100E6000FFF79AF910BDC0463009002000000000CD
:100E7000FEE7C04600000000000000000000000087
:100E8000F0B5002604001D4B87B0066381630D009A
:100E9000586000F0C5F923002833A362E362183BD1
:100EA0002361636101235B42A361154BE661DB694A
:100EB0000027A660666321001E0088232662676201
:100EC000246064603C31E75020000E4A083B00F08B
:100ED0001FF86B68E06024220362012383540A4AEE
:100EE00003930092EA68094B01922A6968460292CC
:100EF0000493059700F064F807B0F0BDC009002026
:100F00003009002060150008B0140008710E0008B8
:100F100010B5040008008B60436402210023818423
:100F20000364C363013926338461C154C261220062
:100F3000030028320261E26A103342611360E36207
:100F40001C33C36204330363436310BD000000001D
:100F50008368020018005168503830B501621900EA
:100F600014697439C1600C61546902254C61114CDB
:100F70000C621468D1681A002C3A816015804164B3
:100F800000210D4A0164C163013D2631826145544F
:100F9000C46119001400403928340C60D46A4C60D4
:100FA0002160D1621A00203B243A12601B605B6012
:100FB00030BDC046B9010008300900200000000023
:100FC00010B5FFF7C5FFFFF793FE10BD000000004E
:100FD00010B572B650394418210024392062E160FE
:100FE0000B61029B20004B61124B0B620223A2603B
:100FF000626400220121A3840F4B2264E263263243
:10100000A361A1540D4A1900E26122002831216137
:10101000D96A103261610A60DA6223002C33E3621C
:101020000433002123636363FFF7C2FE62B620002E
:1010300010BDC046B901000830090020B8140008EE
:1010400070B572B6114BDC682500A062E06A2C35E1
:10105000854207D12623E35C002B0ED00F20FFF73B
:1010600057FE70BD0368E362FFF742FEE06AA842E4
:10107000F8D12623E35C002BF0D12533E35C9B07FA
:10108000ECD16269236913605A60E7E730090020F8
:1010900010B5010072B60820FFF752FE62B610BD0F
:1010A000064B10B5DB68002905D003609862032069
:1010B000FFF746FE10BD01204042FBE7300900204B
:1010C0000300006810B5002804D000221A60816275
:1010D000FFF70EFE10BDC04600000000000000003B
:1010E00000230060406083607047C046000000003D
:1010F000024B034A1A60034A5A607047C80900202D
:10110000880B0020002000200000000000000000EC
:1011100070B5094C26686568AB1B984209D82B1A34
:1011200048421840821A964203D8954201D3626021
:1011300070BD0020FCE7C046C80900200000000088
:1011400070B572B6094C26686568AB1B98420AD820
:101150002B1A48421840821A964204D8954202D36C
:10116000626062B670BD0020FBE7C046C80900207F
:101170000548064B10B503600023436083600C30C4
:10118000FFF7AEFF10BDC046D00900204111000896
:1011900010B50024046041608260C36010BDC04689
:1011A00010B50022FFF7B4FF10BDC04600000000DC
:1011B00070B5134C2000FFF793FF23002000114D62
:1011C0001033236104222B0014211430FFF7E0FFB9
:1011D000230024336362230020002833A362042207
:1011E0002B001C212C30FFF7D3FF23003C33E3639B
:1011F00023004033236423004433636470BDC0463E
:10120000EC090020A111000800000000000000000F
:10121000EFF30983203383F3098862B67047C04631
:10122000024A0349136A0B401362704700ED00E065
:10123000FFFF00FF000000000000000000000000B1
:1012400010B50F3000D110BD72B6EFF30984203C09
:1012500084F3098880235B04E361FFF7D9FD00284C
:1012600002D0034BA361EEE7024BA361EBE7C0465C
:10127000C7010008CA0100080000000000000000CB
:1012800070B58025084B094ADB68094CDA61ED012D
:101290000848A561FFF7FCFE8023DB050548A36134
:1012A000FFF7F6FEF4E7C04630090020C01400083E
:1012B0000004004888130000000000000000000047
:1012C000F0B5DE4657464E464546E0B589B0FFF7D5
:1012D00067F8FFF72DFC8021484C01222000C9014E
:1012E000FFF78EF98021200001220902FFF788F91B
:1012F0008023DB05A36180230022A8211B06A361B4
:1013000049003F4B00923F488032FFF761FE2000CA
:1013100040213D4AFFF774F9200080213A4AFFF747
:101320006FF93A4B3A4918009846FFF769F80023DD
:101330009A46384B00240493374B00260593374BCD
:1013400007AD9B46FA235B00994606AF0BE080226F
:101350002A4B12069A6100239A46FA200134800033
:10136000E4B2FFF795FE4B462E80AC702A00029344
:1013700050210323404601960096FFF751F80028BC
:1013800031D16420FFF784FE4B46029301232A00EB
:1013900001935021404600970133FFF741F80028A0
:1013A00016D13B78A34209D08022144BD2019A6116
:1013B0008022120258469A61FFF7DAFB5346002B4F
:1013C000C5D180220D4B12029A6101239A46C4E7CF
:1013D00080220A4BD2019A618022120205989A61FA
:1013E000FFF7C6FBDDE78022044BD2019A61802221
:1013F000120204989A61FFF7BBFBC2E700040048A1
:1014000081120008380A00208E060000080800201B
:101410008C150008CC140008E4140008FC14000823
:101420009C150008880B0020880B0020880B0020EA
:101430009C150008000000000000000000000000F3
:101440009C150008000000000000000000000000E3
:101450009C150008000000000000000000000000D3
:101460009C150008000000000000000000000000C3
:101470009C150008000000000000000000000000B3
:101480009C150008000000000000000000000000A3
:101490009C15000800000000000000000000000093
:1014A000493243206661696C7572650063300000E3
:1014B00069646C65000000006E6F6E616D65000010
:1014C0006C65642D626C696E6B00000049324331BB
:1014D00020454550524F4D20777269746520464132
:1014E000494C00004932433120454550524F4D2070
:1014F00072656164204641494C0000004932433125
:1015000020454550524F4D2064617461206D6973D0
:101510006D61746368000000AC14000800000000F6
:10152000000000005008002030090020D40C000802
:10153000B20C0008B20C0008D80C0008AA0C000875
:10154000A20C0008B20C0008AA0C0008B20C00089B
:10155000B20C0008B20C0008B20C0008AA0C00087B
:101560006D61696E002C063804044C080C10141CC4
:1015700020242526000000000000240401000400AF
:1015800000000000000C00102830340001000000B2
:08159000A0860100010000002B
:0415980000A24A045F
:04000005080001915D
:00000001FF
