:020000040800F2
:100000000004002091010008A111000893010008DC
:100010009301000893010008930100089301000870
:100020009301000893010008930100089301000860
:1000300093010008930100089301000811050008CE
:100040009301000893010008930100089301000840
:100050009301000893010008930100089301000830
:1000600093010008810600081108000861080008D3
:100070009301000893010008930100089301000810
:100080009301000893010008930100089301000800
:1000900093010008930100089301000893010008F0
:1000A00093010008930100089301000893010008E0
:1000B00093010008930100089301000893010008D0
:1000C00072B6244880F30888234880F30988022008
:1000D00080F31488BFF36F8F00F022F900F018FD51
:1000E0001E481F491B4A914202DA08600431FAE7B0
:1000F0001C49194A914202DA08600431FAE71A49A8
:100100001A4A1B4B9A4204DA086810600431043220
:10011000F8E700201749184A914202DA08600431D2
:10012000FAE700F015F900F003F9144C144DAC4255
:1001300003DA216888470434F9E701F069F8114CC3
:10014000114DAC4203DA216888470434F9E70F49BE
:1001500008470000000400200008002055555555B0
:100160000000002000040020A01400080008002067
:100170000408002008080020340A0020C0000008FD
:10018000C0000008C0000008C000000841030008CB
:1001900096E700F000F8FEE7F0B544464D465646B7
:1001A0005F46F0B46B46CB60C3689D46F0BCA0468A
:1001B000A946B246BB46F0BD62B6281CA047002047
:1001C00000F026FFFEE700F053FE024A024B1360E8
:1001D000FEE7C04604ED00E000000080002934D0B6
:1001E0000123002210B488422CD301242407A14209
:1001F00004D2814202D209011B01F8E7E400A142C6
:1002000004D2814202D249005B00F8E7884201D360
:10021000401A1A434C08A04202D3001B5C08224338
:100220008C08A04202D3001B9C082243CC08A042A9
:1002300002D3001BDC082243002803D01B0901D095
:100240000909E3E7100010BC704701B5002000F079
:100250000BF802BD0029F8D003B5FFF7C1FF0EBCB3
:100260004243891A1847C0467047C046F0B505009A
:10027000830749D0541E002A45D003000326CAB282
:1002800002E00135013C3ED301332A703342F8D1FC
:10029000032C30D9FF220A401502AD182A04AD18EC
:1002A0000F2C34D92700103F3F093E01B4461E00F1
:1002B0001A0010366644156055609560D56010329E
:1002C0009642F8D101373F01DB190F270C22274056
:1002D00022403C00002A0ED03E1FB608B400A446BF
:1002E0001A001C1D644420C2A242FCD10324013622
:1002F000B6009B193C40002C05D0C9B21C191970DE
:1003000001339C42FBD1F0BD03001400C0E727007D
:10031000E2E7C0460000000000000000000000000E
:100320007047C04600000000000000000000000010
:100330007047C04600000000000000000000000000
:10034000FEE7C046000000000000000000000000C2
:1003500070B5114C250080356068A2682168904214
:100360000AD2030040C940C39342FBD3013A131A97
:100370009B0801339B00C018E368834207D9013B07
:100380001A1A9208013200219200FFF76FFF103411
:10039000AC42E1D170BDC0462C1300080000000043
:1003A00010B500F055F800F0DBF800F019FC00F093
:1003B00007F810BD00000000000000000000000071
:1003C00010B500F0B5F810BD0000000000000000FE
:1003D0000F4A70B594460322FF25C0260240D20082
:1003E00095408901914083089B006344B6009C5965
:1003F0001F22AC430C439C51012302409340C02276
:1004000040098000604452008350036070BDC046C4
:1004100000E100E00000000000000000000000001B
:100420000F2310B50340040003202040FF24074A97
:10043000C0009446844089018140083B9B089B0092
:100440006344DA69A2430A43DA6110BD00ED00E0BB
:10045000074B084A022110B59A62002249429A626B
:10046000D9600131DA6019611A6100F029F910BD13
:1004700000100240FFFF81FF0000000000000000AC
:1004800001211D4A13680B4313600131136819429F
:10049000FCD0032153688B435360174A093108008D
:1004A000536818401942FAD1FD2311680B401360BC
:1004B000E4235B035060D06210635063D0625360EA
:1004C000802311685B040B43802113600A4A89046E
:1004D00013680B42FCD01221084B19605368103985
:1004E0000B4353600C2204494B681340082BFBD18B
:1004F000034B044A1A60704700100240002002407B
:100500000008002000A24A040000000000000000D3
:1005100010B5744672B600F08BFB62B6200000F096
:1005200057FE10BD000000000000000000000000A9
:10053000064B074A10B55A6000229A600732022122
:100540000B201A60FFF76CFF10BDC04610E000E002
:100550001F1C000000000000000000000000000060
:100560007047C046000000000000000000000000CE
:10057000F0B54E46032457464546DE46E0B5270013
:10058000530917405607D508520525401C40130F44
:10059000012285B0039391460023A4460297F60FEB
:1005A000009717E05C4607682740009C27430760D8
:1005B000072B52D85446076A3A4022430262490840
:1005C00044D0624692009446009A76009200AD00B4
:1005D000009201334A460A42F1D007274C46039A5B
:1005E0001F40BF00BA409C4092468288A2433243DB
:1005F00092B28280846801945C00A0460324424643
:100600009440E24393462200A046019C944322007A
:1006100044462A438260C268A24364462243C260C1
:100620000F22BA40029CD243022CBBD1072B1AD80E
:10063000076A17405246174307625C46026849083A
:100640002240009C224302600029BAD105B0F0BCD0
:10065000BB46B246A946A046F0BD5446476A3A405A
:1006600022434262ABE7476A17405246174347624C
:10067000E3E7C046000000000000000000000000AA
:100680000E210A4B10B51A6874461140084A1268C8
:100690000A4206D0074A59609368002B01D0D068FF
:1006A0009847200000F094FD10BDC04600000240B5
:1006B00008000240080800200000000000000000C0
:1006C0000020002100230D4A106051600C490B608E
:1006D0000C4993600B600C4913610B600B499361EB
:1006E0000B600B4913620B600A4993620B60136342
:1006F0000122094B52425A607047C0460808002048
:10070000080002401C000240300002404400024049
:10071000580002406C00024000000240000000004F
:100720009C460123F0B54646D6464F461D00C0B54F
:10073000854000261E4C994623688A46B0461D42D5
:1007400029D11C4F0601B919884661460130C00005
:1007500022502B43201841602360AB0605D0494648
:10076000154B5869084358615B69002A06D0BA19CD
:1007700063689068184214D01D4365600F20B91952
:100780004B68497B1A6882431A600E228A40B85926
:10079000426000221A604046E0BCBA46B146A84614
:1007A000F0BD5146D07BFFF713FE6368E4E7C04617
:1007B00008080020AC1300080010024000000000F0
:1007C00010B572B6FFF7ACFF62B610BD00000000B6
:1007D00070B50468457B23680E21EB4019404368DF
:1007E000827B1B6819420BD00B00AB400132636067
:1007F000044BD200D458002C02D09B185868A04754
:1008000070BDC04608080020000000000000000085
:100810000E210C4A10B5136874461B0919400A4B87
:100820001B680B4207D00B015360084A1369002B69
:1008300001D0506998470648FFF7CAFF200000F032
:10084000C7FC10BD000002401C0002400808002048
:10085000CC130008000000000000000000000000B1
:1008600070B5084C75462000FFF7B2FF200010302D
:10087000FFF7AEFF20002030FFF7AAFF280000F0AE
:10088000A7FC70BDDC1300080000000000000000A1
:10089000002000210022034B18605960024B1A709F
:1008A0007047C046480800204008002000000000B3
:1008B00070B5344C2178002962D1334B334A9D699D
:1008C0002A439A619A698022DD68D2042A43DA6059
:1008D000DA682F4D2A40DA60DB6801232D4A9361E4
:1008E0009161837841781B0409020B4301780B4323
:1008F000D3600379C1781B020B4393601568264BC4
:100900001D404379591E8B4181795B02481E81410C
:1009100009020B4321492B430B431360022100239F
:1009200000220020FFF74CFF3F221D4D1D4E2B6B78
:1009300030609343103A13432B63002200230221BB
:100940000120FFF73DFF2A6B174B70601A40C02350
:100950009B0113432B633368002B04D05B68134A5D
:100960009A60134A1A60002804D04368114A9A60BA
:100970000F4A1A60012207490B6813430B6022706B
:1009800070BDC04640080020001002400100000475
:10099000FFFFFFFB00680140F6F8FCFC00000101CE
:1009A0000000014048080020FFC0FFFF1068014020
:1009B00090200000146801400000000000000000CA
:1009C000F0B5D6464F4646464A4B82461B78894686
:1009D0009046C0B5002B00D188E0474B8200D75825
:1009E000002F00D182E0002900D17FE04346002B98
:1009F0006AD080235B02984500D377E005006B1E28
:100A00009D41FF236D421B051D4080235B039C46D7
:100A10003A4E6544336864242B4203D108E0013C1C
:100A2000002C60D00A2000F01BFB33681D42F6D179
:100A30000F217B6838681A6801248A431A600E22E5
:100A4000797B8A404146426059604946D9602C49C9
:100A5000196019682143294C1960216829432160D4
:100A600059686424002903D10DE0013C002C31D0E9
:100A70000A2000F0F5FA7B685A68002AF5D1797BE4
:100A80000E328A4038680F2419681C4FA143196040
:100A900042603B6855341D4203D108E0013C002C04
:100AA00021D00A2000F0DCFA3B682B42F6D15646F2
:100AB000731E9E41FF2376425B051E4080239B03ED
:100AC0009C460E4B66445E600020E0BCBA46B146D0
:100AD000A846F0BD0F211A688A431A600E23797B5D
:100AE0003A688B40536001204042EEE702204042CA
:100AF000EBE7C0464008002048080020006801409D
:100B00009020000000000000000000000000000035
:100B1000FC22244BD203996A10B511439962996A59
:100B20002148802401409962996A59691F480A4303
:100B30005A6190225B6900231D49D2059380916020
:100B40001C49D160212149429182882149011162C9
:100B50001949536211600122184952428B808A6000
:100B6000C8608A820B624B620C601549154C8B8001
:100B70008A60CC608A820B624B620B6012498B8068
:100B80008A60C8608A8211480B624B620B60104910
:100B90008B808A60C8608A820B624B620B60FFF7B1
:100BA0006FFC10BD00100240FFFF81FF55555555E9
:100BB0005FF7FFFF05515565A004002800040048B9
:100BC0000008004855555501000C00485055555532
:100BD00000140048000000000000000000000000B9
:100BE0007047C04600000000000000000000000048
:100BF000012310B5084C23700023636000F040FA15
:100C000000F07EFA00F09CFA0449054800F058F91B
:100C10000223237062B610BDC0090020181400081A
:100C2000300900200000000000000000000000006B
:100C300010B500F03DF810BD0000000000000000FD
:100C400010B5036100230C4C43612369C2609A68AC
:100C5000914204D91B68891A9A688A42FAD35A6861
:100C600081600360426010609A685860521A9A600E
:100C700001235B42A36110BD300900200000000089
:100C8000036881689A6852189A60426813605A60D3
:100C9000002301220360024B52429A617047C04612
:100CA00030090020000000000000000000000000EB
:100CB00070B51B4DEB692C690133EB612B001033D0
:100CC0009C4215D0A368013BA3600FE022686168D5
:100CD0000A605160236062B620002169E36898478A
:100CE00072B66369002B04D12C69A368002BEDD088
:100CF00070BD2A6991688B4204D912685B1A9168A9
:100D00009942FAD35168A360616022600C609168D7
:100D10005460CB1A936001235B42AB61E4E7C046A9
:100D2000300900200000000000000000000000006A
:100D300072B62423CB5C0C2B0BD8114A9B00D358E2
:100D40009F468A6A9368013393604A680B68136010
:100D50005A60012300225B428B622533CA548B699F
:100D600088681B689A688242FBD25A680B604A60A6
:100D70001160596062B6704700228B6A1A60E8E71A
:100D80002C1400080000000000000000000000001B
:100D900024230022C254836981681B689A688A42AE
:100DA000FBD25A6803604260106058607047C046CA
:100DB0002422074B10B5D96888541868046863600A
:100DC0001C6001248454D860FFF7E6F910BDC046CA
:100DD00030090020000000000000000000000000BA
:100DE00070B5164C0500E66886B04B1C19D0330070
:100DF0006846134AFFF724FF2423E1682068CD5496
:100E00000268546022600122C254E060FFF7C4F916
:100E1000009B002B02D06846FFF732FFB06A06B095
:100E200070BD2423F05420683100026854602260B1
:100E30000122C254E060FFF7AFF9EFE7300900206C
:100E4000310D00080000000000000000000000005C
:100E5000044BDA68196890688B6898428041404278
:100E60007047C0463009002000000000000000006C
:100E70000D4B10B51868D9680268012453601A60D8
:100E8000D8602422002384548B548B698C681B689F
:100E90009A68A242FBD85A680B604A601160596098
:100EA000FFF77AF910BDC0463009002000000000AD
:100EB000FEE7C04600000000000000000000000047
:100EC000F0B5002604001D4B87B0066381630D005A
:100ED000586000F06DF923002833A362E362183BE9
:100EE0002361636101235B42A361154BE661DB690A
:100EF0000027A660666321001E00882326626762C1
:100F0000246064603C31E75020000E4A083B00F04A
:100F10001FF86B68E06024220362012383540A4AAD
:100F200003930092EA68094B01922A69684602928B
:100F30000493059700F064F807B0F0BDC0090020E5
:100F4000300900206014000810140008B10E0008D9
:100F500010B5040008008B604364022100238184E3
:100F60000364C363013926338461C154C261220022
:100F7000030028320261E26A103342611360E362C7
:100F80001C33C36204330363436310BD00000000DD
:100F90008368020018005168503830B501621900AA
:100FA00014697439C1600C61546902254C61114C9B
:100FB0000C621468D1681A002C3A81601580416473
:100FC00000210D4A0164C163013D2631826145540F
:100FD000C46119001400403928340C60D46A4C6094
:100FE0002160D1621A00203B243A12601B605B60D2
:100FF00030BDC046B90100083009002000000000E3
:1010000010B5FFF7C5FFFFF7C3FE10BD00000000DD
:1010100070B572B6114BDC682500A062E06A2C3511
:10102000854207D12623E35C002B0ED00F20FFF76B
:10103000BFFE70BD0368E362FFF7AAFEE06AA84244
:10104000F8D12623E35C002BF0D12533E35C9B072A
:10105000ECD16269236913605A60E7E73009002028
:1010600010B5010072B60820FFF7BAFE62B610BDD7
:1010700000230060406083607047C04600000000AD
:10108000024B034A1A60034A5A607047C80900209D
:10109000380A0020002000200000000000000000AE
:1010A00070B5094C26686568AB1B984209D82B1AA5
:1010B00048421840821A964203D8954201D3626092
:1010C00070BD0020FCE7C046C809002000000000F9
:1010D00070B572B6094C26686568AB1B98420AD891
:1010E0002B1A48421840821A964204D8954202D3DD
:1010F000626062B670BD0020FBE7C046C8090020F0
:101100000548064B10B503600023436083600C3034
:10111000FFF7AEFF10BDC046D0090020D110000877
:1011200010B50024046041608260C36010BDC046F9
:1011300010B50022FFF7B4FF10BDC046000000004C
:1011400070B5134C2000FFF793FF23002000114DD2
:101150001033236104222B0014211430FFF7E0FF29
:10116000230024336362230020002833A362042277
:101170002B001C212C30FFF7D3FF23003C33E3630B
:1011800023004033236423004433636470BDC046AE
:10119000EC090020311100080000000000000000F0
:1011A000EFF30983203383F3098862B67047C046A2
:1011B000024A0349136A0B401362704700ED00E0D6
:1011C000FFFF00FF00000000000000000000000022
:1011D00010B50F3000D110BD72B6EFF30984203C7A
:1011E00084F3098880235B04E361FFF731FE002864
:1011F00002D0034BA361EEE7024BA361EBE7C046CD
:10120000C7010008CA01000800000000000000003B
:10121000F0B5DE4657464E464546E0B585B0FFF789
:10122000BFF8FFF7E5FC80213B4B01221800C90104
:101230009946FFF79DF98021012248460902FFF7F0
:1012400097F980234A46DB059361802380211B06A2
:1012500093614846314A4900FFF78AF901212F4A34
:101260002F48FFF785F9FFF713FB2E48FFF720FB08
:10127000002398469B4601932B4B0027FF26002412
:101280009A4603AD0CE0019B002B37D080234A46E1
:10129000DB05936100230193FA20C000FFF7E0FE15
:1012A00043460322290001202E706F70AB70FFF7B8
:1012B00087FB002829D15B46002B26D080234A4695
:1012C0001B06936100239B46601C0321FEF7C2FFAF
:1012D00052464B005B18D65C53445F789B7802AA59
:1012E000984616701300577042460C009A70190009
:1012F00003220020FFF764FB0028C4D080234A4665
:10130000DB01936101230193C6E780234A461B0258
:10131000936101239B46D7E7000400481A070000A9
:0C13200000080048981400088C14000815
:10132C00A4140008340A0020340A0020340A0020D7
:10133C00A4140008000000000000000000000000E1
:10134C00A4140008000000000000000000000000D1
:10135C00A4140008000000000000000000000000C1
:10136C00A4140008000000000000000000000000B1
:10137C00A4140008000000000000000000000000A1
:10138C00A414000800000000000000000000000091
:10139C00A414000800000000000000000000000081
:1013AC00000002400800024001000000000000099B
:1013BC00000002401C000240060000000004010A6C
:1013CC000000024030000240060000000008020A43
:1013DC00000002404400024078000000000C030BA7
:1013EC000000024058000240780000000010040B7E
:1013FC00000002406C000240780000000014050B55
:10140C006330000069646C65000000000C14000877
:10141C0000000000000000005008002030090020EF
:10142C00740D0008520D0008520D0008780D0008CC
:10143C004A0D0008420D0008520D00084A0D000824
:10144C00520D0008520D0008520D0008520D0008F4
:10145C004A0D00086D61696E002C063804044C08B6
:10146C000C10141C2024252600000000000024046D
:10147C000100040000000000000C001028303400B3
:10148C00FF000000FF000000FF000000040F5003ED
:04149C001F0000002D
:0414A00000A24A0458
:04000005080001915D
:00000001FF
