:020000040800F2
:100000000004002091010008F10F0008930100088E
:100010009301000893010008930100089301000870
:100020009301000893010008930100089301000860
:10003000930100089301000893010008610500087E
:100040009301000893010008930100089301000840
:100050009301000893010008930100089301000830
:100060009301000893010008930100089301000820
:100070009301000893010008930100089301000810
:10008000D1060008930100089301000893010008BD
:100090009301000831070008910700089301000848
:1000A00093010008930100089301000893010008E0
:1000B00093010008930100089301000893010008D0
:1000C00072B6244880F30888234880F30988022008
:1000D00080F31488BFF36F8F00F022F900F030FC3A
:1000E0001E481F491B4A914202DA08600431FAE7B0
:1000F0001C49194A914202DA08600431FAE71A49A8
:100100001A4A1B4B9A4204DA086810600431043220
:10011000F8E700201749184A914202DA08600431D2
:10012000FAE700F015F900F003F9144C144DAC4255
:1001300003DA216888470434F9E700F0B9FF114C6D
:10014000114DAC4203DA216888470434F9E70F49BE
:1001500008470000000400200008002055555555B0
:100160000000002000040020001300080008002008
:100170000408002008080020280A0020C000000809
:10018000C0000008C0000008C000000841030008CB
:1001900096E700F000F8FEE7F0B544464D465646B7
:1001A0005F46F0B46B46CB60C3689D46F0BCA0468A
:1001B000A946B246BB46F0BD62B6281CA047002047
:1001C00000F04EFEFEE700F07BFD024A024B13609A
:1001D000FEE7C04604ED00E000000080002934D0B6
:1001E0000123002210B488422CD301242407A14209
:1001F00004D2814202D209011B01F8E7E400A142C6
:1002000004D2814202D249005B00F8E7884201D360
:10021000401A1A434C08A04202D3001B5C08224338
:100220008C08A04202D3001B9C082243CC08A042A9
:1002300002D3001BDC082243002803D01B0901D095
:100240000909E3E7100010BC704701B5002000F079
:100250000BF802BD0029F8D003B5FFF7C1FF0EBCB3
:100260004243891A1847C0467047C046F0B505009A
:10027000830749D0541E002A45D003000326CAB282
:1002800002E00135013C3ED301332A703342F8D1FC
:10029000032C30D9FF220A401502AD182A04AD18EC
:1002A0000F2C34D92700103F3F093E01B4461E00F1
:1002B0001A0010366644156055609560D56010329E
:1002C0009642F8D101373F01DB190F270C22274056
:1002D00022403C00002A0ED03E1FB608B400A446BF
:1002E0001A001C1D644420C2A242FCD10324013622
:1002F000B6009B193C40002C05D0C9B21C191970DE
:1003000001339C42FBD1F0BD03001400C0E727007D
:10031000E2E7C0460000000000000000000000000E
:100320007047C04600000000000000000000000010
:100330007047C04600000000000000000000000000
:10034000FEE7C046000000000000000000000000C2
:1003500070B5114C250080356068A2682168904214
:100360000AD2030040C940C39342FBD3013A131A97
:100370009B0801339B00C018E368834207D9013B07
:100380001A1A9208013200219200FFF76FFF103411
:10039000AC42E1D170BDC046C011000800000000B1
:1003A00010B500F07DF800F003F900F011F800F04E
:1003B0002FFB00F005F810BD000000000000000059
:1003C00010B500F0DDF810BD0000000000000000D6
:1003D00010B500F00DFA10BD000000000000000094
:1003E00001230370002343607047C04600000000F3
:1003F00010B5040072B6416000F01AFA02232370AF
:1004000062B6002010BDC0460000000000000000E1
:1004100010B572B60323037000F07AFA62B610BD0D
:100420000F4A70B594460322FF25C0260240D20031
:1004300095408901914083089B006344B6009C5914
:100440001F22AC430C439C51012302409340C02225
:1004500040098000604452008350036070BDC04674
:1004600000E100E0000000000000000000000000CB
:100470000F2310B50340040003202040FF24074A47
:10048000C0009446844089018140083B9B089B0042
:100490006344DA69A2430A43DA6110BD00ED00E06B
:1004A000064B074A02219A62002249429A62D960A9
:1004B0000131DA6019611A617047C04600100240CC
:1004C000FFFF81FF000000000000000000000000AE
:1004D00001211D4A13680B4313600131136819424F
:1004E000FCD0032153688B435360174A093108003D
:1004F000536818401942FAD1FD2311680B4013606C
:10050000E4235B035060D06210635063D062536099
:10051000802311685B040B43802113600A4A89041D
:1005200013680B42FCD01221084B19605368103934
:100530000B4353600C2204494B681340082BFBD13A
:10054000034B044A1A60704700100240002002402A
:100550000008002000A24A04000000000000000083
:1005600010B5744672B600F08BFA62B6200000F047
:1005700057FD10BD0000000000000000000000005A
:10058000064B074A10B55A6000229A6007320221D2
:100590000B201A60FFF76CFF10BDC04610E000E0B2
:1005A0001F1C000000000000000000000000000010
:1005B0007047C0460000000000000000000000007E
:1005C000F0B54E46032457464546DE46E0B52700C3
:1005D000530917405607D508520525401C40130FF4
:1005E000012285B0039391460023A4460297F60F9B
:1005F000009717E05C4607682740009C2743076088
:10060000072B52D85446076A3A40224302624908EF
:1006100044D0624692009446009A76009200AD0063
:10062000009201334A460A42F1D007274C46039A0A
:100630001F40BF00BA409C4092468288A24332438A
:1006400092B28280846801945C00A04603244246F2
:100650009440E24393462200A046019C944322002A
:1006600044462A438260C268A24364462243C26071
:100670000F22BA40029CD243022CBBD1072B1AD8BE
:10068000076A17405246174307625C4602684908EA
:100690002240009C224302600029BAD105B0F0BC80
:1006A000BB46B246A946A046F0BD5446476A3A400A
:1006B00022434262ABE7476A1740524617434762FC
:1006C000E3E7C0460000000000000000000000005A
:1006D00070B5FF2512487446C1680A8A8B89134099
:1006E0002A001A40D24392B20A82DB0707D5037868
:1006F000042B08D043685B68002B00D0984720008B
:1007000000F08EFC70BD023B037000230B800B8257
:100710008B89AB438B8143685B68002BEED1EEE79E
:100720002808002000000000000000000000000079
:1007300070B5FF2512487446C1680A8A8B89134038
:100740002A001A40D24392B20A82DB0707D5037807
:10075000042B08D043685B68002B00D0984720002A
:1007600000F05EFC70BD023B037000230B800B8227
:100770008B89AB438B8143685B68002BEED1EEE73E
:100780001808002000000000000000000000000029
:1007900070B5FF2512487446C1680A8A8B891340D8
:1007A0002A001A40D24392B20A82DB0707D50378A7
:1007B000042B08D043685B68002B00D098472000CA
:1007C00000F02EFC70BD023B037000230B800B82F7
:1007D0008B89AB438B8143685B68002BEED1EEE7DE
:1007E00008080020000000000000000000000000D9
:1007F0000848094B10B5C360FFF7F2FD0748084BE6
:10080000C360FFF7EDFD0748074BC360FFF7E8FD46
:1008100010BDC04628080020000400401808002031
:10082000004401400808002000480140000000008A
:10083000037870B50400012B12D06568A0682968A0
:10084000FFF7CCFC0022E36801381A80298980B2C6
:100850009980FF2118851A826A898A439A8170BD1E
:10086000244B984231D0244B984218D0234B9842C5
:10087000E3D18022224BD20299691620114399615B
:100880009969D9680A43DA60DA681E490A40DA6071
:100890000321DB68FFF7C4FD1B4BA360CDE780227B
:1008A000174B920299691520114399619969D9688A
:1008B0000A43DA60DA6815490A40DA600321DB6826
:1008C000FFF7AEFD104BA360B7E702210C4B1020E1
:1008D000DA690A43DA61DA691A690A431A611A693C
:1008E0008A431A6101311B69FFF79AFD064BA36029
:1008F000A3E7C046280800201808002008080020A8
:1009000000100240FFFFFBFF00A24A04FFFFFDFFB3
:100910000122C3680139D9629A8200225A621A827E
:1009200042685268002A04D001219A890A4392B28F
:100930009A8185221A8070470000000000000000A4
:10094000FC22244BD203996A10B511439962996A2B
:100950002148802401409962996A59691F480A43D5
:100960005A6190225B6900231D49D20593809160F2
:100970001C49D1602121494291828821490111629B
:100980001949536211600122184952428B808A60D2
:10099000C8608A820B624B620C601549154C8B80D3
:1009A0008A60CC608A820B624B620B6012498B803A
:1009B0008A60C8608A8211480B624B620B601049E2
:1009C0008B808A60C8608A820B624B620B60FFF783
:1009D0007FFD10BD00100240FFFF81FF55555555AA
:1009E0005FF7FFFF05515565A0040028000400488B
:1009F0000008004855555501000C00485055555504
:100A0000001400480000000000000000000000008A
:100A10007047C04600000000000000000000000019
:100A2000012310B5084C23700023636000F050FAD6
:100A300000F08EFA00F0ACFA0449054800F068F9BD
:100A40000223237062B610BDA809002068120008B6
:100A50001809002000000000000000000000000055
:100A600072B68822024B9850024B853A1A70FEE704
:100A700018090020A8090020000000000000000064
:100A800010B500F03DF810BD0000000000000000AF
:100A900010B5036100230C4C43612369C2609A685E
:100AA000914204D91B68891A9A688A42FAD35A6813
:100AB00081600360426010609A685860521A9A60C0
:100AC00001235B42A36110BD180900200000000053
:100AD000036881689A6852189A60426813605A6085
:100AE000002301220360024B52429A617047C046C4
:100AF00018090020000000000000000000000000B5
:100B000070B51B4DEB692C690133EB612B00103381
:100B10009C4215D0A368013BA3600FE02268616886
:100B20000A605160236062B620002169E36898473B
:100B300072B66369002B04D12C69A368002BEDD039
:100B400070BD2A6991688B4204D912685B1A91685A
:100B50009942FAD35168A360616022600C60916889
:100B60005460CB1A936001235B42AB61E4E7C0465B
:100B70001809002000000000000000000000000034
:100B800072B62423CB5C0C2B0BD8114A9B00D35894
:100B90009F468A6A9368013393604A680B681360C2
:100BA0005A60012300225B428B622533CA548B6951
:100BB00088681B689A688242FBD25A680B604A6058
:100BC0001160596062B6704700228B6A1A60E8E7CC
:100BD0007C1200080000000000000000000000007F
:100BE00024230022C254836981681B689A688A4260
:100BF000FBD25A6803604260106058607047C0467C
:100C00002422074B10B5D9688854186804686360BB
:100C10001C6001248454D860FFF7BEFA10BDC046A2
:100C20001809002000000000000000000000000083
:100C300070B5164C0500E66886B04B1C19D0330021
:100C40006846134AFFF724FF2423E1682068CD5447
:100C50000268546022600122C254E060FFF79CFAEF
:100C6000009B002B02D06846FFF732FFB06A06B047
:100C700070BD2423F0542068310002685460226063
:100C80000122C254E060FFF787FAEFE7180900205D
:100C9000810B0008000000000000000000000000C0
:100CA000044BDA68196890688B689842804140422A
:100CB0007047C04618090020000000000000000036
:100CC0000D4B10B51868D9680268012453601A608A
:100CD000D8602422002384548B548B698C681B6851
:100CE0009A68A242FBD85A680B604A60116059604A
:100CF000FFF752FA10BDC04618090020000000009E
:100D0000FEE7C046000000000000000000000000F8
:100D1000F0B5002604001D4B87B0066381630D000B
:100D2000586000F06DF923002833A362E362183B9A
:100D30002361636101235B42A361154BE661DB69BB
:100D40000027A660666321001E0088232662676272
:100D5000246064603C31E75020000E4A083B00F0FC
:100D60001FF86B68E06024220362012383540A4A5F
:100D700003930092EA68094B01922A69684602923D
:100D80000493059700F064F807B0F0BDA8090020AF
:100D900018090020B012000844120008010D0008D4
:100DA00010B5040008008B60436402210023818495
:100DB0000364C363013926338461C154C2612200D4
:100DC000030028320261E26A103342611360E36279
:100DD0001C33C36204330363436310BD000000008F
:100DE0008368020018005168503830B5016219005C
:100DF00014697439C1600C61546902254C61114C4D
:100E00000C621468D1681A002C3A81601580416424
:100E100000210D4A0164C163013D263182614554C0
:100E2000C46119001400403928340C60D46A4C6045
:100E30002160D1621A00203B243A12601B605B6083
:100E400030BDC046B90100081809002000000000AC
:100E500010B5FFF7C5FFFFF7C3FE10BD000000008F
:100E600070B572B6114BDC682500A062E06A2C35C3
:100E7000854207D12623E35C002B0ED00F20FFF71D
:100E8000BFFE70BD0368E362FFF7AAFEE06AA842F6
:100E9000F8D12623E35C002BF0D12533E35C9B07DC
:100EA000ECD16269236913605A60E7E718090020F2
:100EB00010B5010072B60820FFF7BAFE62B610BD89
:100EC00000230060406083607047C046000000005F
:100ED000024B034A1A60034A5A607047B009002067
:100EE000280A002000200020000000000000000070
:100EF00070B5094C26686568AB1B984209D82B1A57
:100F000048421840821A964203D8954201D3626043
:100F100070BD0020FCE7C046B009002000000000C2
:100F200070B572B6094C26686568AB1B98420AD842
:100F30002B1A48421840821A964204D8954202D38E
:100F4000626062B670BD0020FBE7C046B0090020B9
:100F50000548064B10B503600023436083600C30E6
:100F6000FFF7AEFF10BDC046B8090020210F0008F2
:100F700010B50024046041608260C36010BDC046AB
:100F800010B50022FFF7B4FF10BDC04600000000FE
:100F900070B5134C2000FFF793FF23002000114D84
:100FA0001033236104222B0014211430FFF7E0FFDB
:100FB000230024336362230020002833A362042229
:100FC0002B001C212C30FFF7D3FF23003C33E363BD
:100FD00023004033236423004433636470BDC04660
:100FE000D4090020810F000800000000000000006C
:100FF000EFF30983203383F3098862B67047C04654
:10100000024A0349136A0B401362704700ED00E087
:10101000FFFF00FF000000000000000000000000D3
:1010200010B50F3000D110BD72B6EFF30984203C2B
:1010300084F3098880235B04E361FFF731FE002815
:1010400002D0034BA361EEE7024BA361EBE7C0467E
:10105000C7010008CA0100080000000000000000ED
:10106000054A1368013313608023044ADB01918A27
:101070004B4093827047C046240A00200004004879
:101080008021054A0902136801331360034A938AD9
:101090004B4093827047C046200A0020000400485D
:1010A000024A1368013313607047C0461C0A0020CF
:1010B000F0B5DE4657464E464546E0B583B0FFF7ED
:1010C0006FF9FFF7ADFC8021304B01221800C901F8
:1010D0009846FFF775FA8021012240460902FFF782
:1010E0006FFA80234246DB0593618023284E1B065E
:1010F000936130002749FFF77BF9274D27492800E6
:10110000FFF776F9264C27492000FFF771F93000E8
:101110002549FFF77DF9FA212800C900FFF778F982
:10112000FA212000C900FFF773F9204E204D3768DF
:10113000204C2B68994623689A461F4B01938023C5
:10114000DB019B461D48FFF7B3FE33682A68083B66
:101150002168DB1B042B09D84B462D3AD21A0A2AE8
:1011600004D853460839C91A042909D943465A46AE
:101170009A61802342461B0201989361FFF770FC3D
:1011800037682B68994623689A46DBE700040048D5
:1011900028080020F412000818080020E8120008AF
:1011A00008080020DC12000810270000240A002094
:1011B000200A00201C0A00204C120008A086010012
:1011C00004130008280A0020280A0020280A00200A
:1011D00004130008000000000000000000000000F0
:1011E00004130008000000000000000000000000E0
:1011F00004130008000000000000000000000000D0
:1012000004130008000000000000000000000000BF
:1012100004130008000000000000000000000000AF
:10122000041300080000000000000000000000009F
:10123000041300080000000000000000000000008F
:101240006330000069646C650000000054494D2063
:10125000696E7465727275707420636F756E7469EF
:101260006E67204641494C00401200080000000013
:10127000000000003808002018090020C40B0008F6
:10128000A20B0008A20B0008C80B00089A0B00086C
:10129000920B0008A20B00089A0B0008A20B000892
:1012A000A20B0008A20B0008A20B00089A0B000872
:1012B0006D61696E002C063804044C080C10141C77
:1012C0002024252600000000000024040100040062
:1012D00000000000000C001028303400D00700008F
:1012E000A110000800000000102700008110000875
:1012F000000000001027000061100008000000003E
:0413000000A24A04F9
:04000005080001915D
:00000001FF
