:020000040800F2
:100000000004002091010008E1220008930100088B
:100010009301000893010008930100089301000870
:100020009301000893010008930100089301000860
:10003000930100089301000893010008610F000874
:100040009301000893010008930100089301000840
:100050009301000893010008930100089301000830
:100060009301000893010008930100089301000820
:100070009301000893010008930100089301000810
:100080009301000893010008930100089301000800
:1000900093010008930100089301000893010008F0
:1000A00093010008930100089301000893010008E0
:1000B000211200089301000893010008A114000810
:1000C00072B6244880F30888234880F30988022008
:1000D00080F31488BFF36F8F00F06AF901F0E0FC41
:1000E0001E481F491B4A914202DA08600431FAE7B0
:1000F0001C49194A914202DA08600431FAE71A49A8
:100100001A4A1B4B9A4204DA086810600431043220
:10011000F8E700201749184A914202DA08600431D2
:10012000FAE700F05DF900F04BF9144C144DAC42C5
:1001300003DA216888470434F9E702F031F9114CF9
:10014000114DAC4203DA216888470434F9E70F49BE
:1001500008470000000400200008002055555555B0
:1001600000000020000400201826000800080020DD
:100170000408002008080020700C0020C0000008BF
:10018000C0000008C0000008C0000008D10300083B
:1001900096E700F000F8FEE7F0B544464D465646B7
:1001A0005F46F0B46B46CB60C3689D46F0BCA0468A
:1001B000A946B246BB46F0BD62B6281CA047002047
:1001C00001F056FFFEE701F04BFE024A024B1360BE
:1001D000FEE7C04604ED00E000000080002934D0B6
:1001E0000123002210B488422CD301242407A14209
:1001F00004D2814202D209011B01F8E7E400A142C6
:1002000004D2814202D249005B00F8E7884201D360
:10021000401A1A434C08A04202D3001B5C08224338
:100220008C08A04202D3001B9C082243CC08A042A9
:1002300002D3001BDC082243002803D01B0901D095
:100240000909E3E7100010BC704701B5002000F079
:100250000BF802BD0029F8D003B5FFF7C1FF0EBCB3
:100260004243891A1847C0467047C046F0B505009A
:10027000830749D0541E002A45D003000326CAB282
:1002800002E00135013C3ED301332A703342F8D1FC
:10029000032C30D9FF220A401502AD182A04AD18EC
:1002A0000F2C34D92700103F3F093E01B4461E00F1
:1002B0001A0010366644156055609560D56010329E
:1002C0009642F8D101373F01DB190F270C22274056
:1002D00022403C00002A0ED03E1FB608B400A446BF
:1002E0001A001C1D644420C2A242FCD10324013622
:1002F000B6009B193C40002C05D0C9B21C191970DE
:1003000001339C42FBD1F0BD03001400C0E727007D
:10031000E2E7C046F0B505000F2A33D903240300F5
:1003200026000B431E401C4237D11500103D2D09FD
:1003300003000C00AC462F013F1865685D60A5689E
:100340009D60E568DD60256810341D601D00103378
:10035000BD42F2D165460F230C2401352D01491908
:100360001340451914421AD08C59AC5104369C1BC9
:10037000032CF9D8043B9B0801339B00ED18C918E6
:1003800003231A40561E002A06D00023CC5C1A0014
:10039000EC5401339642F9D1F0BD561EF5E71A0030
:1003A000F0E7C04600000000000000000000000070
:1003B0007047C04600000000000000000000000080
:1003C0007047C04600000000000000000000000070
:1003D000FEE7C04600000000000000000000000032
:1003E00070B5114C250080356068A2682168904284
:1003F0000AD2030040C940C39342FBD3013A131A07
:100400009B0801339B00C018E368834207D9013B76
:100410001A1A9208013200219200FFF727FF1034C8
:10042000AC42E1D170BDC046FC23000800000000D2
:1004300010B500F035FD00F0BBFD00F0D9F900F07B
:1004400057FA01F095FB00F003F810BD0000000022
:1004500010B500F095FD10BD000000000000000088
:10046000F0B5C646836804000F00150000B593423E
:1004700000D28568A1692669761AB5421BD30CD8CB
:100480002A003800FFF746FFE268A36828005B1BDC
:10049000A261A36080BCB846F0BD32003800FFF70F
:1004A00039FFAB1B98461A00E168B819FFF732FF15
:1004B000E2684244E9E72A003800FFF72BFFA2690F
:1004C0005219E2E7000000000000000000000000F8
:1004D000F0B5C646836804000F00150000B59342CE
:1004E00000D2856860692669361AB5421BD30CD8DC
:1004F0002A003900FFF70EFFE268A36828005B1BA3
:100500006261A36080BCB846F0BD32003900FFF7DD
:1005100001FFAB1B98461A00E068B919FFF7FAFE15
:10052000E2684244E9E72A003900FFF7F3FE626916
:100530005219E2E700000000000000000000000087
:1005400010B50024C361029BC160816141618918BB
:100550000060406084600161036210BD0000000023
:100560004369826910B5934211D08268013282607A
:100570005A1C42611970426903699A4204D20021EF
:1005800001F0BEFD002010BDC3684361F7E782683B
:10059000002AEAD001204042F5E7C04600000000F2
:1005A00070B505000C0072B605E02100280001F0CE
:1005B0008FFD002816DBAB68002BF6D0AB68AA696C
:1005C000013BAB60531CAB6114782A69934201D3A1
:1005D000EB68AB61EB69002B01D02800984762B64D
:1005E000200070BD62B6FCE70000000000000000C3
:1005F000F0B5D6464F4646469A46C369C0B59146C1
:1006000007000E00984672B6151E11D02A00310060
:100610003800FFF725FF041E11D04346002B01D000
:100620003800C04762B62D1B361972B6002DEDD1C9
:10063000484662B6E0BCBA46B146A846F0BD51464F
:10064000380001F045FD0028E0D04B46581BF0E78C
:10065000C361009BC1608161416189180060406095
:10066000826001610362704700000000000000002A
:1006700070B504000E00150072B605E029002000D8
:1006800001F026FD002817DBA368002BF6D0A36835
:10069000013BA36063695A1C62611E706269236931
:1006A0009A4201D3E3686361E369002B01D0200023
:1006B000984762B6002070BD62B6FCE700000000FB
:1006C0008369426910B59A4210D082680132826013
:1006D0005A1C82611C7803699A4204D2002101F0FD
:1006E0000FFD200010BDC3688361F7E78268002A10
:1006F000EBD001204042F5E70000000000000000C0
:10070000F0B5D6464F4646469A46C369C0B59146AF
:1007100007000E00984672B6151E11D02A0031004F
:100720003800FFF7D5FE041E11D04346002B01D040
:100730003800C04762B62D1B361972B6002DEDD1B8
:10074000484662B6E0BCBA46B146A846F0BD51463E
:10075000380001F0BDFC0028E0D04B46581BF0E704
:1007600010B50C30FFF744FF10BDC046000000007C
:10077000012310B50C305B42FFF73AFF10BDC046B5
:1007800010B53030FFF7BCFF10BDC04600000000C0
:10079000012310B530305B42FFF7B2FF10BDC046F9
:1007A00010B50C30FFF7FCFE10BDC0460000000085
:1007B000012110B50C304942FFF7F2FE10BDC046D2
:1007C00010B53030FFF754FF10BDC04600000000E8
:1007D000012210B530305242FFF74AFF10BDC0462B
:1007E00001394B425941142049420840143870479E
:1007F00010B500F075FC10BD000000000000000006
:1008000030B5150002000B000C4983B002C2040091
:10081000426001000122543102720C3000940F3208
:10082000FFF78EFE210020002B00102264313030B3
:100830000094FFF70DFF03B030BDC0467C240008D4
:10084000436970B504000D00002B07D0200029007B
:100850000C30FFF785FE00280BDB70BD042104304F
:1008600001F066FC200029000C30FFF779FE00281B
:10087000F3DA8021201D090101F05AFCEDE7C046A2
:1008800010B50400002101F0C3F80021200001F0A0
:100890009FF863681B68002B02D006212000984750
:1008A000A368044A1340A36000230622A3677033A1
:1008B000E25410BDFEFFFEFF00000000000000003B
:1008C000822310B50400C25C0833C25400F038FF24
:1008D00063681B68002B02D0012120009847032386
:1008E000237010BD000000000000000000000000A8
:1008F00010B500F0CDFE10BD0000000000000000AB
:1009000070B50123002504004560037040220021DA
:100910003030FFF7ABFCA56070BDC04600000000A2
:10092000022370B5002503708633C55004002422CD
:100930000021856785600C30FFF798FC702320004C
:10094000E55400F0B5FE63681B68002B02D000215F
:100950002000984770BDC046000000000000000065
:10096000037810B50400052B0BD08C22835405238B
:10097000037043681B68002B01D0042198470023B3
:10098000A36010BD00000000000000000000000097
:10099000037810B5052B00D010BD8733C35C0370FE
:1009A00043681B68002BF7D005219847F4E7C04641
:1009B000702370B5C25C0400002A06D08268C14969
:1009C0000A40826000228267C25422000021200077
:1009D000803200F035FF63689B68002B2DD020002B
:1009E0009847002829D0A16F8623E25C2300863334
:1009F0005B781B0213438B4200D3A1E08022A367E4
:100A0000A25C52B2002A4FDB002B00D18AE0702397
:100A10001522E25472B601206389A26F03436381F9
:100A2000E368616F9B6920001A60002299605A6038
:100A3000002100F025FF62B635E060228025160017
:100A4000605D064002422BD181237F22E35C02409D
:100A50001B0213439C4A934200D1F6E03CD880220B
:100A60005200934200D1A0E000D96DE0012B00D1EB
:100A7000E9E0022B00D1A4E022008832002B0FD144
:100A80000223A367002302216267E367ACE7902299
:100A90001201934200D1A5E08C4A934200D1D2E0EA
:100AA0002000FFF7EDFE70BD002B27D07023092238
:100AB000E25472B601202389A26F03432381E368C5
:100AC000616F5B691A6000229960002120005A6002
:100AD00000F0FEFE62B6E6E780221201934200D1EA
:100AE000C7E0D4D8A022D200934240D1784A002354
:100AF000E2676367A36740B2002813DA7023142209
:100B0000E25472B6012263890021134300226381FB
:100B1000E36820009B699A601A605A6000F0B0FE9A
:100B200062B6C0E770230B22E25472B60122238919
:100B3000134300222381E3685B699A601A60C4E76B
:100B40008023E25C0B005CE781225200934262D07A
:100B5000FF32FF329342A3D18223E35C012B9FD16A
:100B600088220221A35A0B43A3520022BFE7594A0D
:100B700094466344012B00D992E78423E25C23006E
:100B800084335B7883211B02134382226068A25C5A
:100B90004568615C2000A847002800D180E74368D1
:100BA00001686367A167E6671EE78223E35C012BA8
:100BB00000D075E788220221A35A8B43A35200225A
:100BC00095E784230F21E25CE35620001140002BBF
:100BD00057DB00F0E5FD012857D0022800D05FE781
:100BE0003D4A4DE72378042B51D08223E35C002B50
:100BF0000AD08B22A3540423237063681B68002B44
:100C000002D002212000984700236367A367E367AF
:100C10008033E05C6FE78223E35C002B00D03FE78A
:100C20000F2211008433E35C19401A4206D05BB2F4
:100C30002000002B5CDB00F003FF605D0023636796
:100C4000A367E36757E7254A1AE78223E35C002B93
:100C500000D025E70F2211008433E35C19401A42CB
:100C6000ECD05BB22000002B3EDB00F0B1FE605DFB
:100C7000E4E723008B33636701230121A367E66761
:100C8000B2E600F0B5FD0128A7D1154AF8E672B624
:100C90002000A368134A00211340A36020221030D3
:100CA000FFF7E4FA200000F05BFD62B68B23E65408
:100CB000883B237063681B68002B96D003212000BB
:100CC000984792E7FEFFFEFF02030000020C0000BF
:100CD000C108000800FAFFFF582500085C2500083D
:100CE000542500080100010000F092FE605DA5E7B8
:100CF00000F0BEFE605DA1E7000000000000000003
:100D0000702310B5C35C0400152B20D8244A9B0027
:100D1000D3589F468623E25C230086335B78806F3E
:100D20001B021343984223D370231422E25472B659
:100D3000012263890021134300226381E3682000BC
:100D40009B699A601A605A6000F09AFD62B610BD05
:100D5000FFF796FDFBE7C36F002B00D09847A36811
:100D6000104A1340A36070220023A367A354EEE748
:100D7000E368198AFFF76EFA0029D5D172B601220D
:100D80002389200013432381E3685B69996019601C
:100D9000596000F09DFD62B670230A22E254D6E746
:100DA000A4240008FEFFFEFF000000000000000079
:100DB0007023C35C10B50400152B05D8154A9B00A1
:100DC000D3589F46FFF75CFD10BD70230B22C25421
:100DD00072B6012203890021134300220381C368F4
:100DE0005B699A601A605A6000F072FD62B6EBE7C8
:100DF000C3689B695B68002BE6D1C36F002B00D0F2
:100E00009847A368044A1340A36070220023A36795
:100E1000A354D9E7FC240008FEFFFEFF00000000F9
:100E20000F4A70B594460322FF25C0260240D20027
:100E300095408901914083089B006344B6009C590A
:100E40001F22AC430C439C51012302409340C0221B
:100E500040098000604452008350036070BDC0466A
:100E600000E100E0000000000000000000000000C1
:100E70000F2310B50340040003202040FF24074A3D
:100E8000C0009446844089018140083B9B089B0038
:100E90006344DA69A2430A43DA6110BD00ED00E061
:100EA000064B074A02219A62002249429A62D9609F
:100EB0000131DA6019611A617047C04600100240C2
:100EC000FFFF81FF000000000000000000000000A4
:100ED00001211D4A13680B43136001311368194245
:100EE000FCD0032153688B435360174A0931080033
:100EF000536818401942FAD1FD2311680B40136062
:100F0000E4235B035060D06210635063D06253608F
:100F1000802311685B040B43802113600A4A890413
:100F200013680B42FCD01221084B1960536810392A
:100F30000B4353600C2204494B681340082BFBD130
:100F4000034B044A1A607047001002400020024020
:100F50000008002000A24A04000000000000000079
:100F600010B5744672B600F02BFE62B6200001F098
:100F7000CFF910BD000000000000000000000000DC
:100F8000064B074A10B55A6000229A6007320221C8
:100F90000B201A60FFF76CFF10BDC04610E000E0A8
:100FA0001F1C000000000000000000000000000006
:100FB0007047C04600000000000000000000000074
:100FC000F0B54E46032457464546DE46E0B52700B9
:100FD000530917405607D508520525401C40130FEA
:100FE000012285B0039391460023A4460297F60F91
:100FF000009717E05C4607682740009C274307607E
:10100000072B52D85446076A3A40224302624908E5
:1010100044D0624692009446009A76009200AD0059
:10102000009201334A460A42F1D007274C46039A00
:101030001F40BF00BA409C4092468288A243324380
:1010400092B28280846801945C00A04603244246E8
:101050009440E24393462200A046019C9443220020
:1010600044462A438260C268A24364462243C26067
:101070000F22BA40029CD243022CBBD1072B1AD8B4
:10108000076A17405246174307625C4602684908E0
:101090002240009C224302600029BAD105B0F0BC76
:1010A000BB46B246A946A046F0BD5446476A3A4000
:1010B00022434262ABE7476A1740524617434762F2
:1010C000E3E7C04600000000000000000000000050
:1010D000C021024A93890B4393817047004400402A
:1010E00010B5074C074A20000021FFF789FB064B8B
:1010F00003216367054B1C20A367FFF791FE10BD1A
:1011000008080020D11000080044004000A24A0452
:10111000F8B5CE464746456F06002B8880B59CB291
:10112000DB0552D472B62F23234234D0203B98469D
:101130000E3B9946202708E0A98889B227421FD193
:101140002F222B889CB21A4225D043462342F3D04B
:1011500049464A462140E3084942134039401B02B0
:101160001943A30701D540231943630701D5802301
:101170001943301D00F0DCFFA98889B22742DFD077
:101180007C23F35C30001940FFF75AFB2F222B8899
:101190009CB21A42D9D162B68022AB8990469FB2E6
:1011A0001A4201D022421AD1402398463B4207D02E
:1011B000234205D072B6726CB36C9A421AD062B6F2
:1011C000AF81C0BCB946B046F8BD72B680210430CC
:1011D000C90000F0ADFF104B2B8062B6A2E772B6DB
:1011E00030003030FFF76CFA00280DDB80B2A880A9
:1011F00062B6D9E7B36B002BE1D01021301D00F0AF
:1012000097FF43469F43DAE70821301D00F090FF27
:1012100043469F43ECE7C046FFFEFFFF000000008F
:1012200010B574460348FFF773FF200001F070F813
:1012300010BDC046080800200000000000000000AB
:101240000100F0B5D64646464F468B1C57489A4695
:101250009B00C318C0B55E68B269002956D101244D
:10126000534B5F7C3C424CD047893C4200D18BE0E1
:101270009F7DDC7D936824023C43002B00D168E015
:10128000002C00D18AE00125AC461D19A946494D24
:10129000A846884447463F781F7001339945F9D1E5
:1012A000936800294CD1002B00D17DE0738A404F18
:1012B000A34260D89389012B5DD040257B7C2B43D2
:1012C0007B749368002B01D01B19936017685368D7
:1012D0003F1B1B19536093891760013B9BB293819D
:1012E000728AA24201D8002B0BD1624643899343F4
:1012F000438153469D0045196B68DB68002B00D085
:101300009847E0BCBA46B146A846F0BD0124284F34
:10131000A0463B7D1C42F4D023008B409C46644693
:1013200043891C4235D0BB7DFC7D24021C4393685D
:1013300006D0002BA9D145463B7DAB433B75C5E7A5
:101340001B4F3D7DB8460127BD432F0045462F75F5
:10135000B8E713681F1E24D0002C1FD00125AC460F
:101360002700002BA2D14825114C637C2B436374CA
:101370003C000027ABE748257B7C2B437B7401278F
:101380000D4B1F7093689DE740215A7C0A435A74A5
:10139000B7E742463B7D93433B75B2E701239C464A
:1013A00084E701239C46DEE71368D9E7A408002000
:1013B000005C0040205C0040880800200000000025
:1013C0000100F8B5CE46474630488B1C9B00C31839
:1013D0005B6880B59C465A69002904D004242C4BD4
:1013E0005D7C2C423FD101238B4005892B420FD0DD
:1013F000D4681668A14654684C445460371BA64212
:101400000AD19D4363469B680581002B00D0984715
:10141000C0BCB946B046F8BD63461B8ABC46984678
:101420009F422AD864469368D4604B449360002C52
:1014300007D0184A1D198C181A78013322709D4262
:10144000FAD1002913D1474519D8C3681B8A9C4596
:1014500003D38623C35A9E4211D30A210C4A537CDC
:101460000B435374D4E75D7CA5435D74BBE7012156
:10147000074A537C0B435374CAE79C46D2E70221C8
:10148000034A537C0B435374C2E7C046A4080020B0
:10149000005C0040205C00400000000000000000F4
:1014A000F0B5564644465F464D46F0B4744BF2469E
:1014B0009A7983B0D4B2520700D583E0714DE30727
:1014C00053D4A3074BD4240705D56B68DB68002BE6
:1014D00001D0280098476A4B9A78DF7917401A792B
:1014E000597A11409A7B8846D2B2019201223A423F
:1014F00041D101239946624B2E0001249B463B00BB
:101500004A4623411A4207D03369002B04D05B4678
:10151000E0B29873FFF754FF01340436082CEED183
:101520000126574F073C434623411E4206D02B69F4
:10153000002B03D0E0B2B873FFF782FE013404350C
:10154000082CF0D14E4B019A50469A7300F0E0FE01
:1015500003B0F0BCBB46B246A946A046F0BD280089
:10156000FFF716FA2407B6D5AFE72800FFF7F8F91A
:10157000A307A8D5F3E700219C7B9973597CE4B2BB
:10158000C8B2C9063AD404210240014202D0587CB4
:1015900088435874002A55D07023EB5CEA68002B0E
:1015A00036D0062B34D0364E9069B17DF37D1B02C8
:1015B0000B43082B02D18368002B47D00020FFF794
:1015C0003FFE37E00122987BDA71002201211A7276
:1015D000C0B25A729A7299730131C9B21A74DA742C
:1015E0009A745A755A741A750829F4D19873254853
:1015F000FFF796F9504600F08BFEA9E78026597C4C
:101600000240314359740421014216D1002A19D0F5
:1016100001231D4E00213370EB6828005B6898475A
:101620003378002B06D04021154A537C0B4353746A
:1016300000233370124B9C735BE7587C88435874CB
:10164000002AE5D10020FFF7BBFEF3E703689B46C5
:10165000002BB3D10C4B28009946012349460B704F
:101660005368002198474B461B78002BE2D040235B
:10167000727C134373745A464B461A70DAE7C046BD
:10168000005C0040A4080020890800200000000041
:10169000002210B5024B03481A70FFF731F910BD54
:1016A00089080020A40800200000000000000000BD
:1016B000002230B501241D4B1D491A700A701D49C6
:1016C0000A705978214359700121D9711A725A72DE
:1016D0009A724368002B27D0DB685A1E9341DB00C7
:1016E0000733124AD3720023917B9373537CC9B2A0
:1016F000DCB2DB0703D54025537C2B435374E4064F
:1017000004D58024094A537C23435374074B0A4A67
:1017100099730021C26001209A7B9973D979D2B262
:101720000143D9719A7330BD0723DAE7005C0040AA
:1017300089080020880800206025000800000000BB
:101740008A23C25C0B3B1340014A13707047C046AA
:10175000005C0040000000000000000000000000ED
:10176000002270B5012101250C4B9E7B9A73F6B2C5
:101770002C008C40C8B29873D8790131A043D8713D
:10178000587AA04358721A74DA749A745A755A7453
:101790001A750829ECD19E7370BDC046005C0040EC
:1017A0008B1C9B00C0184368002B18D09B69002B32
:1017B00015D00C4A937B9173DBB2002908D020200E
:1017C000127D1040424250410130064A93737047E7
:1017D0002020527C1040424250410130F5E7002069
:1017E000F5E7C046005C004000000000000000007B
:1017F0008B1C9B00C0184368002B17D05B69002B23
:1018000014D00B4A937B9173527CDBB2002907D032
:1018100010201040424250410130054A93737047F6
:1018200020201040424250410130F6E70020F6E708
:10183000005C00400000000000000000000000000C
:1018400030B5140020200B4908340B5C13700132B2
:10185000A242FAD1084B1A78002A09D00024402568
:101860008A7B8C73487CD2B2284348748A731C707C
:1018700030BDC046005C0040890800200000000028
:101880008B1C9B00C018426870B595690C002868D5
:101890000123002805D0518A40180138FEF79EFC2C
:1018A00083B2AB81002C0AD00120A040044B997B6D
:1018B0009C735A7AC9B20243D2B25A72997370BDFC
:1018C000005C00400000000000000000000000007C
:1018D000F8B58B1C4746CE469B00C3185B6880B5A5
:1018E0009C465F693B68984663461C8A444500D91C
:1018F0004446FC60002C10D12F4A937B9173DBB2DD
:10190000002937D001202C494A7C02434A742A4AD4
:101910009373C0BCB946B046F8BD274ABB68914630
:10192000264AE6188D181A7801332A709E42FAD199
:101930004B464A469B7B9173DBB20029E2D120499A
:101940000A78002A29D141467A688A1A94421ED11F
:10195000C268128A944207D38622815C863042781C
:1019600012020A43904512D30A2013494A7C0243CB
:101970004A74CCE712490D78002D0ED17021415CDC
:101980000B29E0D10A20517C01435174BFE70220AA
:1019900009494A7C02434A74B9E700220A70064AA0
:1019A0009373012203899343038163469B68002B51
:1019B000AFD000219847ACE7005C0040205C0040BD
:1019C0008808002000000000000000000000000067
:1019D0000C4B9A7B9973D2B2002907D1597CC90765
:1019E0000BD56020597C0143597403E02020197DF8
:1019F00001431975034B9A7370472020597C0143AA
:101A00005974F7E7005C004000000000000000008F
:101A1000084B9A7B9973D2B2002906D12020597CB9
:101A200001435974034B9A7370471020597C01434A
:101A30005974F7E7005C004000000000000000005F
:101A40000A4B9A7B9973D2B2002906D12420597C83
:101A500081435974054B9A7370476020197D814307
:101A60001975197D203001431975F3E7005C0040BA
:101A70000A4B9A7B9973D2B2002906D12420597C53
:101A800081435974054B9A7370473020597C8143C8
:101A90005974597C103001435974F3E7005C0040DD
:101AA000FC22244BD203996A10B511439962996ABA
:101AB0002148802401409962996A59691F480A4364
:101AC0005A6190225B6900231D49D2059380916081
:101AD0001C49D1602121494291828821490111622A
:101AE0001949536211600122184952428B808A6061
:101AF000C8608A820B624B620C601549154C8B8062
:101B00008A60CC608A820B624B620B6012498B80C8
:101B10008A60C8608A8211480B624B620B60104970
:101B20008B808A60C8608A820B624B620B60FFF711
:101B3000CFF910BD00100240FFFF81FF55555555EC
:101B40005FF7FFFF05515565A00400280004004819
:101B50000008004855555501000C00485055555592
:101B60000014004800000000000000000000000019
:101B70007047C046000000000000000000000000A8
:101B8000012310B5084C23700023636000F018FB9C
:101B900000F056FB00F074FB0449054800F088F99A
:101BA0000223237062B610BDA80A0020A4250008F5
:101BB000180A0020000000000000000000000000E3
:101BC00010B500F03DF810BD00000000000000005E
:101BD00010B5036100230C4C43612369C2609A680D
:101BE000914204D91B68891A9A688A42FAD35A68C2
:101BF00081600360426010609A685860521A9A606F
:101C000001235B42A36110BD180A00200000000000
:101C1000036881689A6852189A60426813605A6033
:101C2000002301220360024B52429A617047C04672
:101C3000180A002000000000000000000000000062
:101C400070B51B4DEB692C690133EB612B00103330
:101C50009C4215D0A368013BA3600FE02268616835
:101C60000A605160236062B620002169E3689847EA
:101C700072B66369002B04D12C69A368002BEDD0E8
:101C800070BD2A6991688B4204D912685B1A916809
:101C90009942FAD35168A360616022600C60916838
:101CA0005460CB1A936001235B42AB61E4E7C0460A
:101CB000180A0020000000000000000000000000E2
:101CC00072B62423CB5C0C2B0BD8114A9B00D35843
:101CD0009F468A6A9368013393604A680B68136071
:101CE0005A60012300225B428B622533CA548B6900
:101CF00088681B689A688242FBD25A680B604A6007
:101D00001160596062B6704700228B6A1A60E8E77A
:101D1000B8250008000000000000000000000000DE
:101D200024230022C254836981681B689A688A420E
:101D3000FBD25A6803604260106058607047C0462A
:101D40002422074B10B5D96888541868046863606A
:101D50001C6001248454D860FEF71EFA10BDC046F2
:101D6000180A002000000000000000000000000031
:101D700070B5164C0500E66886B04B1C19D03300D0
:101D80006846134AFFF724FF2423E1682068CD54F6
:101D90000268546022600122C254E060FEF7FCF940
:101DA000009B002B02D06846FFF732FFB06A06B0F6
:101DB00070BD2423F0542068310002685460226012
:101DC0000122C254E060FEF7E7F9EFE7180A0020AD
:101DD000C11C00080000000000000000000000001E
:101DE00070B5154C8162E368826899688A4214D99B
:101DF000242200259D549A6912689568A942FBD354
:101E000051681A6059600B6053600121242281548B
:101E10001900E060FEF7C0F970BD24230021C15411
:101E200083691B6899688A42FBD95A6803604260DB
:101E300010605860F0E7C046180A0020000000005B
:101E4000044BDA68196890688B6898428041404278
:101E50007047C046180A0020000000000000000083
:101E60000D4B10B51868D9680268012453601A60D8
:101E7000D8602422002384548B548B698C681B689F
:101E80009A68A242FBD85A680B604A601160596098
:101E9000FEF782F910BDC046180A002000000000BD
:101EA000FEE7C04600000000000000000000000047
:101EB000F0B5002604001D4B87B0066381630D005A
:101EC000586000F015FA23002833A362E362183B40
:101ED0002361636101235B42A361154BE661DB690A
:101EE0000027A660666321001E00882326626762C1
:101EF000246064603C31E75020000E4A083B00F04B
:101F00001FF86B68E06024220362012383540A4AAD
:101F100003930092EA68094B01922A69684602928B
:101F20000493059700F064F807B0F0BDA80A0020FC
:101F3000180A0020EC25000888250008A11E0008CA
:101F400010B5040008008B604364022100238184E3
:101F50000364C363013926338461C154C261220022
:101F6000030028320261E26A103342611360E362C7
:101F70001C33C36204330363436310BD00000000DD
:101F80008368020018005168503830B501621900AA
:101F900014697439C1600C61546902254C61114C9B
:101FA0000C621468D1681A002C3A81601580416473
:101FB00000210D4A0164C163013D2631826145540F
:101FC000C46119001400403928340C60D46A4C6094
:101FD0002160D1621A00203B243A12601B605B60D2
:101FE00030BDC046B9010008180A002000000000FA
:101FF00010B5FFF7C5FFFFF793FE10BD000000000E
:1020000010B572B650394418210024392062E160BD
:102010000B61029B20004B61124B0B620223A260FA
:10202000626400220121A3840F4B2264E263263202
:10203000A361A1540D4A1900E261220028312161F7
:10204000D96A103261610A60DA6223002C33E362DC
:102050000433002123636363FFF7C2FE62B62000EE
:1020600010BDC046B9010008180A002090250008DC
:1020700070B572B6114BDC682500A062E06A2C35A1
:10208000854207D12623E35C002B0ED00F20FFF7FB
:1020900057FE70BD0368E362FFF742FEE06AA842A4
:1020A000F8D12623E35C002BF0D12533E35C9B07BA
:1020B000ECD16269236913605A60E7E7180A0020CF
:1020C00010B5010072B60820FFF752FE62B610BDCF
:1020D000084B10B5DB68002908D0426818605A60C8
:1020E000136043600420FFF743FE10BD012040420F
:1020F000FBE7C046180A00200000000000000000B6
:102100000300006810B5834205D002681A6053606E
:102110008162FFF705FE10BD000000000000000016
:1021200000230060406083607047C04600000000EC
:10213000F0B5C646046806000D0000B5A04233D0D5
:102140000023242798460CE06068A368C26B134301
:10215000C363C25D0A2A1DD00B2A28D02468A64278
:1021600022D0E3682B43E360002DEDD023692B429E
:10217000EAD12468B44217D0E3682B43E3602369B3
:102180002B42F6D06068A368C26B1343C363C25D81
:102190000A2AE1D1826A1A42E0D043468362FFF7FD
:1021A000BFFD2468A642DCD180BCB846F0BD826A7F
:1021B00013409A42D2D1F0E7000000000000000076
:1021C000024B034A1A60034A5A607047B00A002063
:1021D000700C002000200020000000000000000023
:1021E00070B5094C26686568AB1B984209D82B1A54
:1021F00048421840821A964203D8954201D3626041
:1022000070BD0020FCE7C046B00A002000000000BE
:1022100070B572B6094C26686568AB1B98420AD83F
:102220002B1A48421840821A964204D8954202D38B
:10223000626062B670BD0020FBE7C046B00A0020B5
:102240000548064B10B503600023436083600C30E3
:10225000FFF766FF10BDC046B80A00201122000833
:1022600010B50024046041608260C36010BDC046A8
:1022700010B50022FFF7B4FF10BDC04600000000FB
:1022800070B5134C2000FFF74BFF23002000114DC9
:102290001033236104222B0014211430FFF7E0FFD8
:1022A000230024336362230020002833A362042226
:1022B0002B001C212C30FFF7D3FF23003C33E363BA
:1022C00023004033236423004433636470BDC0465D
:1022D000D40A002071220008000000000000000065
:1022E000EFF30983203383F3098862B67047C04651
:1022F000024A0349136A0B401362704700ED00E085
:10230000FFFF00FF000000000000000000000000D0
:1023100010B50F3000D110BD72B6EFF30984203C28
:1023200084F3098880235B04E361FFF789FD0028BB
:1023300002D0034BA361EEE7024BA361EBE7C0467B
:10234000C7010008CA0100080000000000000000EA
:1023500070B580250B4B0C4ADB680C4CDA61ED0143
:1023600080231B02A5610A48A361FFF7A9FE802311
:10237000DB05A36180231B060548A361FFF7A0FED0
:10238000EEE7C046180A002098250008000400481F
:1023900088130000000000000000000000000000A2
:1023A00010B582B0FEF744F8FFF7EAFB80210F4C2E
:1023B00001222000C901FEF703FE80210122200036
:1023C0000902FEF7FDFD8023DB05A36180230022C7
:1023D000A8211B06A36106480092064B80324900E3
:1023E000FFF70EFE0448FFF76BFEFBE70004004812
:0C23F000200B002051230008881300007F
:1023FC001C260008700C0020700C0020700C0020B3
:10240C001C26000800000000000000000000000076
:10241C001C26000800000000000000000000000066
:10242C001C26000800000000000000000000000056
:10243C001C26000800000000000000000000000046
:10244C001C26000800000000000000000000000036
:10245C001C26000800000000000000000000000026
:10246C001C26000800000000000000000000000016
:10247C00000000009107000871070008D107000850
:10248C00B1070008C1070008A10700088107000870
:10249C0061070008E1070008500D00084E0D000808
:1024AC004E0D00084E0D00084E0D00084E0D000894
:1024BC00500D00084E0D00084E0D0008140D0008BC
:1024CC00280D0008560D00084E0D00084E0D000892
:1024DC004E0D00084E0D00084E0D00084E0D000864
:1024EC004E0D00084E0D00084E0D0008500D000852
:1024FC00C40D0008C80D0008C80D0008C80D000860
:10250C00C80D0008C80D0008C40D0008C80D00084F
:10251C00C80D0008C80D0008C40D0008C40D000843
:10252C00C80D0008C80D0008C80D0008C80D00082B
:10253C00C80D0008C80D0008C80D0008C80D00081B
:10254C00F00D0008CA0D000801000000000000009A
:10255C000000000000000000B1090008010D000897
:10256C00B10D0008400040009408002094080020A1
:10257C00010000008C0800206330000069646C6569
:10258C00000000006E6F6E616D6500006C65642D5F
:10259C00626C696E6B00000084250008000000006E
:1025AC000000000038090020180A0020041D000853
:1025BC00E21C0008E21C0008081D0008DA1C0008D8
:1025CC00D21C0008E21C0008DA1C0008E21C0008FF
:1025DC00E21C0008E21C0008E21C0008DA1C0008DF
:1025EC006D61696E002C063804044C080C10141C28
:1025FC002024252600000000000024040100040013
:0C260C0000000000000C0010283034001A
:0426180000A24A04CE
:04000005080001915D
:00000001FF
